{
  "contractName": "TOAD",
  "abi": [
    {
      "anonymous": false,
      "inputs": [
        {
          "indexed": false,
          "internalType": "uint256",
          "name": "round",
          "type": "uint256"
        }
      ],
      "name": "GenerateNewKeys",
      "type": "event"
    },
    {
      "anonymous": false,
      "inputs": [
        {
          "components": [
            {
              "internalType": "uint256",
              "name": "e_tag",
              "type": "uint256"
            },
            {
              "internalType": "uint256",
              "name": "e_sk",
              "type": "uint256"
            },
            {
              "internalType": "uint256",
              "name": "e_pk",
              "type": "uint256"
            }
          ],
          "indexed": false,
          "internalType": "struct TOAD.EncryptedAccount[]",
          "name": "group",
          "type": "tuple[]"
        },
        {
          "indexed": false,
          "internalType": "uint256",
          "name": "threshold",
          "type": "uint256"
        },
        {
          "indexed": false,
          "internalType": "string",
          "name": "label",
          "type": "string"
        }
      ],
      "name": "GroupCreation",
      "type": "event"
    },
    {
      "anonymous": false,
      "inputs": [
        {
          "indexed": false,
          "internalType": "uint256[2]",
          "name": "gpk",
          "type": "uint256[2]"
        },
        {
          "indexed": false,
          "internalType": "uint256",
          "name": "anonymous_id",
          "type": "uint256"
        },
        {
          "indexed": false,
          "internalType": "uint256",
          "name": "round",
          "type": "uint256"
        }
      ],
      "name": "GroupKey",
      "type": "event"
    },
    {
      "anonymous": false,
      "inputs": [],
      "name": "MasterGroupKeyAvailable",
      "type": "event"
    },
    {
      "anonymous": false,
      "inputs": [
        {
          "indexed": false,
          "internalType": "address",
          "name": "sender",
          "type": "address"
        },
        {
          "indexed": false,
          "internalType": "uint256",
          "name": "round",
          "type": "uint256"
        },
        {
          "indexed": false,
          "internalType": "bytes",
          "name": "file_hash",
          "type": "bytes"
        },
        {
          "indexed": false,
          "internalType": "uint256[4]",
          "name": "c1",
          "type": "uint256[4]"
        },
        {
          "indexed": false,
          "internalType": "uint256[4]",
          "name": "c2",
          "type": "uint256[4]"
        }
      ],
      "name": "NewMessage",
      "type": "event"
    },
    {
      "anonymous": false,
      "inputs": [
        {
          "indexed": false,
          "internalType": "uint256[2]",
          "name": "public_key",
          "type": "uint256[2]"
        },
        {
          "indexed": false,
          "internalType": "uint256",
          "name": "anonymous_id",
          "type": "uint256"
        }
      ],
      "name": "PublicKey",
      "type": "event"
    },
    {
      "anonymous": false,
      "inputs": [
        {
          "indexed": false,
          "internalType": "uint256[]",
          "name": "shares",
          "type": "uint256[]"
        },
        {
          "indexed": false,
          "internalType": "uint256",
          "name": "round",
          "type": "uint256"
        }
      ],
      "name": "Share",
      "type": "event"
    },
    {
      "anonymous": false,
      "inputs": [
        {
          "indexed": false,
          "internalType": "address",
          "name": "sender",
          "type": "address"
        },
        {
          "indexed": false,
          "internalType": "uint256",
          "name": "id",
          "type": "uint256"
        },
        {
          "indexed": false,
          "internalType": "uint256[4]",
          "name": "share",
          "type": "uint256[4]"
        },
        {
          "indexed": false,
          "internalType": "uint256[2]",
          "name": "proof",
          "type": "uint256[2]"
        }
      ],
      "name": "ShareForDec",
      "type": "event"
    },
    {
      "constant": true,
      "inputs": [],
      "name": "N",
      "outputs": [
        {
          "internalType": "uint256",
          "name": "",
          "type": "uint256"
        }
      ],
      "payable": false,
      "stateMutability": "view",
      "type": "function"
    },
    {
      "constant": true,
      "inputs": [
        {
          "internalType": "uint256",
          "name": "",
          "type": "uint256"
        }
      ],
      "name": "gpk_list",
      "outputs": [
        {
          "internalType": "uint256",
          "name": "anonymousId",
          "type": "uint256"
        }
      ],
      "payable": false,
      "stateMutability": "view",
      "type": "function"
    },
    {
      "constant": true,
      "inputs": [],
      "name": "has_been_used",
      "outputs": [
        {
          "internalType": "bool",
          "name": "",
          "type": "bool"
        }
      ],
      "payable": false,
      "stateMutability": "view",
      "type": "function"
    },
    {
      "constant": true,
      "inputs": [],
      "name": "is_mpk_available",
      "outputs": [
        {
          "internalType": "bool",
          "name": "",
          "type": "bool"
        }
      ],
      "payable": false,
      "stateMutability": "view",
      "type": "function"
    },
    {
      "constant": true,
      "inputs": [],
      "name": "nb_group_key",
      "outputs": [
        {
          "internalType": "uint256",
          "name": "",
          "type": "uint256"
        }
      ],
      "payable": false,
      "stateMutability": "view",
      "type": "function"
    },
    {
      "constant": true,
      "inputs": [],
      "name": "public_account",
      "outputs": [
        {
          "internalType": "address",
          "name": "",
          "type": "address"
        }
      ],
      "payable": false,
      "stateMutability": "view",
      "type": "function"
    },
    {
      "constant": true,
      "inputs": [],
      "name": "round",
      "outputs": [
        {
          "internalType": "uint256",
          "name": "",
          "type": "uint256"
        }
      ],
      "payable": false,
      "stateMutability": "view",
      "type": "function"
    },
    {
      "constant": true,
      "inputs": [],
      "name": "t",
      "outputs": [
        {
          "internalType": "uint256",
          "name": "",
          "type": "uint256"
        }
      ],
      "payable": false,
      "stateMutability": "view",
      "type": "function"
    },
    {
      "constant": false,
      "inputs": [
        {
          "components": [
            {
              "internalType": "uint256",
              "name": "e_tag",
              "type": "uint256"
            },
            {
              "internalType": "uint256",
              "name": "e_sk",
              "type": "uint256"
            },
            {
              "internalType": "uint256",
              "name": "e_pk",
              "type": "uint256"
            }
          ],
          "internalType": "struct TOAD.EncryptedAccount[]",
          "name": "_group",
          "type": "tuple[]"
        },
        {
          "internalType": "uint256",
          "name": "_threshold",
          "type": "uint256"
        },
        {
          "internalType": "string",
          "name": "_label",
          "type": "string"
        }
      ],
      "name": "groupCreation",
      "outputs": [],
      "payable": false,
      "stateMutability": "nonpayable",
      "type": "function"
    },
    {
      "constant": false,
      "inputs": [
        {
          "internalType": "uint256[2]",
          "name": "_public_key",
          "type": "uint256[2]"
        },
        {
          "internalType": "uint256",
          "name": "_anonymous_id",
          "type": "uint256"
        }
      ],
      "name": "publish_pk",
      "outputs": [],
      "payable": false,
      "stateMutability": "nonpayable",
      "type": "function"
    },
    {
      "constant": false,
      "inputs": [
        {
          "internalType": "uint256[]",
          "name": "_shares",
          "type": "uint256[]"
        }
      ],
      "name": "publish_share",
      "outputs": [],
      "payable": false,
      "stateMutability": "nonpayable",
      "type": "function"
    },
    {
      "constant": false,
      "inputs": [
        {
          "internalType": "uint256[2]",
          "name": "_gpk",
          "type": "uint256[2]"
        },
        {
          "internalType": "uint256",
          "name": "_anonymous_id",
          "type": "uint256"
        },
        {
          "internalType": "uint256",
          "name": "_round",
          "type": "uint256"
        }
      ],
      "name": "register_group_key",
      "outputs": [],
      "payable": false,
      "stateMutability": "nonpayable",
      "type": "function"
    },
    {
      "constant": true,
      "inputs": [],
      "name": "get_group_keys",
      "outputs": [
        {
          "components": [
            {
              "internalType": "uint256",
              "name": "anonymousId",
              "type": "uint256"
            },
            {
              "internalType": "uint256[2]",
              "name": "gpk",
              "type": "uint256[2]"
            }
          ],
          "internalType": "struct TOAD.GroupKeyWithId[]",
          "name": "",
          "type": "tuple[]"
        }
      ],
      "payable": false,
      "stateMutability": "view",
      "type": "function"
    },
    {
      "constant": false,
      "inputs": [
        {
          "internalType": "bytes",
          "name": "file_hash",
          "type": "bytes"
        },
        {
          "internalType": "uint256[4]",
          "name": "c1",
          "type": "uint256[4]"
        },
        {
          "internalType": "uint256[4]",
          "name": "c2",
          "type": "uint256[4]"
        }
      ],
      "name": "send_msg",
      "outputs": [],
      "payable": false,
      "stateMutability": "nonpayable",
      "type": "function"
    },
    {
      "constant": false,
      "inputs": [
        {
          "internalType": "uint256",
          "name": "_round",
          "type": "uint256"
        },
        {
          "internalType": "uint256[4]",
          "name": "_share",
          "type": "uint256[4]"
        },
        {
          "internalType": "uint256[2]",
          "name": "_proof",
          "type": "uint256[2]"
        }
      ],
      "name": "share_for_dec",
      "outputs": [],
      "payable": false,
      "stateMutability": "nonpayable",
      "type": "function"
    }
  ],
  "bytecode": "0x608060405260008060006101000a81548160ff02191690831515021790555060008060016101000a81548160ff021916908315150217905550600060055534801561004957600080fd5b50611b17806100596000396000f3fe608060405234801561001057600080fd5b50600436106100f55760003560e01c80635db10c94116100975780639da8537a116100665780639da8537a1461024e578063bea33f921461026a578063c9e525df14610288578063ec71e50c146102a6576100f5565b80635db10c94146101c65780638000d354146101e257806387eb8ae91461021257806392d0d15314610230576100f5565b806326cf5298116100d357806326cf529814610152578063293cb2ec146101705780634728bfa71461018e57806356a763b5146101aa576100f5565b8063038caef8146100fa5780631131fa6014610116578063146ca53114610134575b600080fd5b610114600480360361010f9190810190610d6e565b6102c2565b005b61011e610407565b60405161012b91906114e0565b60405180910390f35b61013c61042d565b604051610149919061174e565b60405180910390f35b61015a610433565b60405161016791906115e1565b60405180910390f35b6101786104e1565b6040516101859190611693565b60405180910390f35b6101a860048036036101a39190810190610e29565b6104f3565b005b6101c460048036036101bf9190810190610eb9565b61069c565b005b6101e060048036036101db9190810190610e78565b610782565b005b6101fc60048036036101f79190810190610f21565b610850565b604051610209919061174e565b60405180910390f35b61021a61087b565b6040516102279190611693565b60405180910390f35b61023861088e565b604051610245919061174e565b60405180910390f35b61026860048036036102639190810190610ded565b610894565b005b610272610961565b60405161027f919061174e565b60405180910390f35b610290610967565b60405161029d919061174e565b60405180910390f35b6102c060048036036102bb9190810190610f4a565b61096d565b005b6000809054906101000a900460ff1615610311576040517f08c379a0000000000000000000000000000000000000000000000000000000008152600401610308906116ae565b60405180910390fd5b60016000806101000a81548160ff02191690831515021790555082516001819055506001548210610377576040517f08c379a000000000000000000000000000000000000000000000000000000000815260040161036e9061172e565b60405180910390fd5b8160028190555033600360006101000a81548173ffffffffffffffffffffffffffffffffffffffff021916908373ffffffffffffffffffffffffffffffffffffffff16021790555060006004819055507f82672eb5e6c44c55e91280a329a9e88093477274f1e0249369f0633c0dfb265d8383836040516103fa9392919061159c565b60405180910390a1505050565b600360009054906101000a900473ffffffffffffffffffffffffffffffffffffffff1681565b60045481565b60606006805480602002602001604051908101604052809291908181526020016000905b828210156104d8578382906000526020600020906003020160405180604001604052908160008201548152602001600182016002806020026040519081016040528092919082600280156104c0576020028201915b8154815260200190600101908083116104ac575b50505050508152505081526020019060010190610457565b50505050905090565b6000809054906101000a900460ff1681565b600360009054906101000a900473ffffffffffffffffffffffffffffffffffffffff1673ffffffffffffffffffffffffffffffffffffffff163373ffffffffffffffffffffffffffffffffffffffff1614610583576040517f08c379a000000000000000000000000000000000000000000000000000000000815260040161057a906116ee565b60405180910390fd5b7fa27ceb9453f12631ffb629693e93729fdf50033f4a52265898dbf04ca97e1ade8383836040516105b69392919061162c565b60405180910390a160008114156106975760016005600082825401925050819055506006604051806040016040528084815260200185815250908060018154018082558091505090600182039060005260206000209060030201600090919290919091506000820151816000015560208201518160010190600261063b9291906109fe565b505050506001600254016005541415610696576001600060016101000a81548160ff0219169083151502179055507fcef48ede0cb1072eb5a225ce62cc287f38210d06f4e3eacef9cf7fa7f78b09bb60405160405180910390a15b5b505050565b600060019054906101000a900460ff166106eb576040517f08c379a00000000000000000000000000000000000000000000000000000000081526004016106e29061170e565b60405180910390fd5b7f3f7055ad274fe6f7a8d065a0798cd3489665cd6d207a220ca42999f17166b86f33600454858585604051610724959493929190611541565b60405180910390a160006004541115610771577f59883b3ff144b03efffcd047e8eea14b853f611b162bed2f2a561041c7c31f57600454604051610768919061174e565b60405180910390a15b600160045401600481905550505050565b600360009054906101000a900473ffffffffffffffffffffffffffffffffffffffff1673ffffffffffffffffffffffffffffffffffffffff163373ffffffffffffffffffffffffffffffffffffffff1614610812576040517f08c379a0000000000000000000000000000000000000000000000000000000008152600401610809906116ee565b60405180910390fd5b7fdb12755b28c95d48eb64cd0360e26d58ced66e965148e71d2c22cf4254ed65e181600454604051610845929190611663565b60405180910390a150565b6006818154811061085d57fe5b90600052602060002090600302016000915090508060000154905081565b600060019054906101000a900460ff1681565b60025481565b600360009054906101000a900473ffffffffffffffffffffffffffffffffffffffff1673ffffffffffffffffffffffffffffffffffffffff163373ffffffffffffffffffffffffffffffffffffffff1614610924576040517f08c379a000000000000000000000000000000000000000000000000000000000815260040161091b906116ee565b60405180910390fd5b7fd8b5cd32d815dc1d121ad4c6586b9fa532f24a2e597bda40050fe78dfce711348282604051610955929190611603565b60405180910390a15050565b60055481565b60015481565b600060019054906101000a900460ff166109bc576040517f08c379a00000000000000000000000000000000000000000000000000000000081526004016109b3906116ce565b60405180910390fd5b7faf68c8c1fc9d028d4bf2d1e25dd1ffb39175d0dbc73b71284179222eceabf981338484846040516109f194939291906114fb565b60405180910390a1505050565b8260028101928215610a2d579160200282015b82811115610a2c578251825591602001919060010190610a11565b5b509050610a3a9190610a3e565b5090565b610a6091905b80821115610a5c576000816000905550600101610a44565b5090565b90565b600082601f830112610a7457600080fd5b8135610a87610a8282611796565b611769565b91508181835260208401935060208101905083856060840282011115610aac57600080fd5b60005b83811015610adc5781610ac28882610cf9565b845260208401935060608301925050600181019050610aaf565b5050505092915050565b600082601f830112610af757600080fd5b6002610b0a610b05826117be565b611769565b91508183856020840282011115610b2057600080fd5b60005b83811015610b505781610b368882610d59565b845260208401935060208301925050600181019050610b23565b5050505092915050565b600082601f830112610b6b57600080fd5b6004610b7e610b79826117e0565b611769565b91508183856020840282011115610b9457600080fd5b60005b83811015610bc45781610baa8882610d59565b845260208401935060208301925050600181019050610b97565b5050505092915050565b600082601f830112610bdf57600080fd5b8135610bf2610bed82611802565b611769565b91508181835260208401935060208101905083856020840282011115610c1757600080fd5b60005b83811015610c475781610c2d8882610d59565b845260208401935060208301925050600181019050610c1a565b5050505092915050565b600082601f830112610c6257600080fd5b8135610c75610c708261182a565b611769565b91508082526020830160208301858383011115610c9157600080fd5b610c9c838284611a6a565b50505092915050565b600082601f830112610cb657600080fd5b8135610cc9610cc482611856565b611769565b91508082526020830160208301858383011115610ce557600080fd5b610cf0838284611a6a565b50505092915050565b600060608284031215610d0b57600080fd5b610d156060611769565b90506000610d2584828501610d59565b6000830152506020610d3984828501610d59565b6020830152506040610d4d84828501610d59565b60408301525092915050565b600081359050610d6881611abd565b92915050565b600080600060608486031215610d8357600080fd5b600084013567ffffffffffffffff811115610d9d57600080fd5b610da986828701610a63565b9350506020610dba86828701610d59565b925050604084013567ffffffffffffffff811115610dd757600080fd5b610de386828701610ca5565b9150509250925092565b60008060608385031215610e0057600080fd5b6000610e0e85828601610ae6565b9250506040610e1f85828601610d59565b9150509250929050565b600080600060808486031215610e3e57600080fd5b6000610e4c86828701610ae6565b9350506040610e5d86828701610d59565b9250506060610e6e86828701610d59565b9150509250925092565b600060208284031215610e8a57600080fd5b600082013567ffffffffffffffff811115610ea457600080fd5b610eb084828501610bce565b91505092915050565b60008060006101208486031215610ecf57600080fd5b600084013567ffffffffffffffff811115610ee957600080fd5b610ef586828701610c51565b9350506020610f0686828701610b5a565b92505060a0610f1786828701610b5a565b9150509250925092565b600060208284031215610f3357600080fd5b6000610f4184828501610d59565b91505092915050565b600080600060e08486031215610f5f57600080fd5b6000610f6d86828701610d59565b9350506020610f7e86828701610b5a565b92505060a0610f8f86828701610ae6565b9150509250925092565b6000610fa58383611451565b60608301905092915050565b6000610fbd8383611493565b60608301905092915050565b6000610fd583836114c2565b60208301905092915050565b610fea81611a34565b82525050565b610ff9816119ec565b82525050565b600061100a826118d0565b6110148185611976565b935061101f83611882565b8060005b838110156110505781516110378882610f99565b975061104283611928565b925050600181019050611023565b5085935050505092915050565b6000611068826118db565b6110728185611987565b935061107d83611892565b8060005b838110156110ae5781516110958882610fb1565b97506110a083611935565b925050600181019050611081565b5085935050505092915050565b6110c4816118f1565b6110ce81846119a3565b92506110d9826118ac565b8060005b8381101561110a5781516110f18782610fc9565b96506110fc8361194f565b9250506001810190506110dd565b505050505050565b61111b816118e6565b6111258184611998565b9250611130826118a2565b8060005b838110156111615781516111488782610fc9565b965061115383611942565b925050600181019050611134565b505050505050565b611172816118fc565b61117c81846119ae565b9250611187826118b6565b8060005b838110156111b857815161119f8782610fc9565b96506111aa8361195c565b92505060018101905061118b565b505050505050565b60006111cb82611907565b6111d581856119b9565b93506111e0836118c0565b8060005b838110156112115781516111f88882610fc9565b975061120383611969565b9250506001810190506111e4565b5085935050505092915050565b611227816119fe565b82525050565b600061123882611912565b61124281856119ca565b9350611252818560208601611a79565b61125b81611aac565b840191505092915050565b60006112718261191d565b61127b81856119db565b935061128b818560208601611a79565b61129481611aac565b840191505092915050565b60006112ac6015836119db565b91507f67726f757020616c7265616479206372656174656400000000000000000000006000830152602082019050919050565b60006112ec6014836119db565b91507f6e6f206d65737361676520617661696c61626c650000000000000000000000006000830152602082019050919050565b600061132c6046836119db565b91507f6f6e6c7920757365722077686f20686176652061636365737320746f2074686560008301527f207075626c6963206163636f756e742063616e2063616c6c207468697320667560208301527f6e6374696f6e00000000000000000000000000000000000000000000000000006040830152606082019050919050565b60006113b8601b836119db565b91507f6d6173746572206b6579206973206e6f7420617661696c61626c6500000000006000830152602082019050919050565b60006113f86022836119db565b91507f7468726573686f6c64206d7573742073617469736679207468726573686f6c6460008301527f3c4e0000000000000000000000000000000000000000000000000000000000006020830152604082019050919050565b60608201600082015161146760008501826114c2565b50602082015161147a60208501826114c2565b50604082015161148d60408501826114c2565b50505050565b6060820160008201516114a960008501826114c2565b5060208201516114bc6020850182611112565b50505050565b6114cb81611a2a565b82525050565b6114da81611a2a565b82525050565b60006020820190506114f56000830184610ff0565b92915050565b6000610100820190506115116000830187610fe1565b61151e60208301866114d1565b61152b6040830185611169565b61153860c08301846110bb565b95945050505050565b6000610160820190506115576000830188610fe1565b61156460208301876114d1565b8181036040830152611576818661122d565b90506115856060830185611169565b61159260e0830184611169565b9695505050505050565b600060608201905081810360008301526115b68186610fff565b90506115c560208301856114d1565b81810360408301526115d78184611266565b9050949350505050565b600060208201905081810360008301526115fb818461105d565b905092915050565b600060608201905061161860008301856110bb565b61162560408301846114d1565b9392505050565b600060808201905061164160008301866110bb565b61164e60408301856114d1565b61165b60608301846114d1565b949350505050565b6000604082019050818103600083015261167d81856111c0565b905061168c60208301846114d1565b9392505050565b60006020820190506116a8600083018461121e565b92915050565b600060208201905081810360008301526116c78161129f565b9050919050565b600060208201905081810360008301526116e7816112df565b9050919050565b600060208201905081810360008301526117078161131f565b9050919050565b60006020820190508181036000830152611727816113ab565b9050919050565b60006020820190508181036000830152611747816113eb565b9050919050565b600060208201905061176360008301846114d1565b92915050565b6000604051905081810181811067ffffffffffffffff8211171561178c57600080fd5b8060405250919050565b600067ffffffffffffffff8211156117ad57600080fd5b602082029050602081019050919050565b600067ffffffffffffffff8211156117d557600080fd5b602082029050919050565b600067ffffffffffffffff8211156117f757600080fd5b602082029050919050565b600067ffffffffffffffff82111561181957600080fd5b602082029050602081019050919050565b600067ffffffffffffffff82111561184157600080fd5b601f19601f8301169050602081019050919050565b600067ffffffffffffffff82111561186d57600080fd5b601f19601f8301169050602081019050919050565b6000819050602082019050919050565b6000819050602082019050919050565b6000819050919050565b6000819050919050565b6000819050919050565b6000819050602082019050919050565b600081519050919050565b600081519050919050565b600060029050919050565b600060029050919050565b600060049050919050565b600081519050919050565b600081519050919050565b600081519050919050565b6000602082019050919050565b6000602082019050919050565b6000602082019050919050565b6000602082019050919050565b6000602082019050919050565b6000602082019050919050565b600082825260208201905092915050565b600082825260208201905092915050565b600081905092915050565b600081905092915050565b600081905092915050565b600082825260208201905092915050565b600082825260208201905092915050565b600082825260208201905092915050565b60006119f782611a0a565b9050919050565b60008115159050919050565b600073ffffffffffffffffffffffffffffffffffffffff82169050919050565b6000819050919050565b6000611a3f82611a46565b9050919050565b6000611a5182611a58565b9050919050565b6000611a6382611a0a565b9050919050565b82818337600083830152505050565b60005b83811015611a97578082015181840152602081019050611a7c565b83811115611aa6576000848401525b50505050565b6000601f19601f8301169050919050565b611ac681611a2a565b8114611ad157600080fd5b5056fea365627a7a723158208e2f6ec29625419241335eb13fc815e81e607135e283bd59b7b139eb207eae176c6578706572696d656e74616cf564736f6c63430005100040",
  "source": "pragma solidity >=0.5.0;\npragma experimental ABIEncoderV2;\n\ncontract TOAD{\n    ///private variables\n\n    /// public variables\n    bool public has_been_used = false;\n    bool public is_mpk_available = false;\n    uint public N;\n    uint public t;\n    address public public_account;\n    uint public round;\n    uint public nb_group_key = 0;\n\n    GroupKeyWithId[] public gpk_list;\n\n    ///structures\n    struct EncryptedAccount{\n        uint256 e_tag;\n        uint256 e_sk;\n        uint256 e_pk;\n    }\n\n    struct GroupKeyWithId{\n        uint anonymousId;\n        uint256[2] gpk;\n    }\n\n    ///events\n    event GroupCreation(EncryptedAccount[] group, uint threshold, string label);\n    event PublicKey(uint256[2] public_key, uint anonymous_id);\n    event Share(uint256[] shares, uint round);\n    event GroupKey(uint256[2] gpk, uint anonymous_id, uint round);\n    event MasterGroupKeyAvailable();\n    event ShareForDec(address sender, uint id, uint256[4] share, uint256[2] proof);\n    event NewMessage(address sender, uint round, bytes file_hash, uint256[4] c1, uint256[4] c2);\n    event GenerateNewKeys(uint round);\n\n    function groupCreation(\n        EncryptedAccount[] memory _group, \n        uint _threshold, \n        string memory _label\n        ) public {\n        \n        require(!has_been_used,'group already created');\n        has_been_used = true;\n\n        N = _group.length;\n        require(_threshold < N,'threshold must satisfy threshold<N');\n        t = _threshold;\n        public_account = msg.sender;\n        round = 0;\n\n        emit GroupCreation(_group, _threshold, _label);\n    }\n\n    function publish_pk(uint256[2] memory _public_key, uint _anonymous_id) public{\n        require(msg.sender == public_account, 'only user who have access to the public account can call this function');\n        emit PublicKey(_public_key, _anonymous_id);\n    }\n\n    function publish_share(uint256[] memory _shares) public{\n        require(msg.sender == public_account, 'only user who have access to the public account can call this function');\n        emit Share(_shares, round);\n    }\n\n    function register_group_key(uint256[2] memory _gpk, uint _anonymous_id, uint _round)public{\n        require(msg.sender == public_account,'only user who have access to the public account can call this function');\n        \n        emit GroupKey(_gpk, _anonymous_id, _round); \n\n        if(_round == 0){\n            nb_group_key +=1;\n            gpk_list.push(GroupKeyWithId(_anonymous_id, _gpk));\n            if(nb_group_key == t +1){\n                is_mpk_available = true;\n                emit MasterGroupKeyAvailable();\n            }\n        }\n    }\n\n    function get_group_keys()public view returns(GroupKeyWithId[] memory){\n        return gpk_list;\n    }\n\n    function send_msg(bytes memory file_hash, uint256[4] memory c1, uint256[4] memory c2) public{\n        require(is_mpk_available, 'master key is not available');\n        emit NewMessage(msg.sender,round, file_hash, c1, c2);\n        if (round>0){\n            emit GenerateNewKeys(round);\n        }\n        round = round + 1;\n    }\n\n    function share_for_dec(uint _round, uint256[4] memory _share, uint256[2] memory _proof) public{\n        require(is_mpk_available, 'no message available');\n        emit ShareForDec(msg.sender, _round, _share, _proof);\n    }\n\n}",
  "sourcePath": "/home/alexis/Documents/Stage Disc/TOAD/contracts/TOAD.sol",
  "compiler": {
    "name": "solc",
    "version": "0.5.16+commit.9c3226ce.Emscripten.clang"
  },
  "schemaVersion": "3.3.1",
  "updatedAt": "2021-02-04T14:57:18.556Z",
  "devdoc": {
    "methods": {}
  },
  "userdoc": {
    "methods": {}
  }
}