{
  "contractName": "TOAD",
  "abi": [
    {
      "anonymous": false,
      "inputs": [
        {
          "components": [
            {
              "internalType": "uint256",
              "name": "e_tag",
              "type": "uint256"
            },
            {
              "internalType": "uint256",
              "name": "e_sk",
              "type": "uint256"
            },
            {
              "internalType": "uint256",
              "name": "e_pk",
              "type": "uint256"
            }
          ],
          "indexed": false,
          "internalType": "struct TOAD.EncryptedAccount[]",
          "name": "group",
          "type": "tuple[]"
        },
        {
          "indexed": false,
          "internalType": "uint256",
          "name": "threshold",
          "type": "uint256"
        },
        {
          "indexed": false,
          "internalType": "string",
          "name": "label",
          "type": "string"
        }
      ],
      "name": "GroupCreation",
      "type": "event"
    },
    {
      "constant": true,
      "inputs": [],
      "name": "N",
      "outputs": [
        {
          "internalType": "uint256",
          "name": "",
          "type": "uint256"
        }
      ],
      "payable": false,
      "stateMutability": "view",
      "type": "function"
    },
    {
      "constant": true,
      "inputs": [],
      "name": "has_been_used",
      "outputs": [
        {
          "internalType": "bool",
          "name": "",
          "type": "bool"
        }
      ],
      "payable": false,
      "stateMutability": "view",
      "type": "function"
    },
    {
      "constant": true,
      "inputs": [],
      "name": "t",
      "outputs": [
        {
          "internalType": "uint256",
          "name": "",
          "type": "uint256"
        }
      ],
      "payable": false,
      "stateMutability": "view",
      "type": "function"
    },
    {
      "constant": false,
      "inputs": [
        {
          "components": [
            {
              "internalType": "uint256",
              "name": "e_tag",
              "type": "uint256"
            },
            {
              "internalType": "uint256",
              "name": "e_sk",
              "type": "uint256"
            },
            {
              "internalType": "uint256",
              "name": "e_pk",
              "type": "uint256"
            }
          ],
          "internalType": "struct TOAD.EncryptedAccount[]",
          "name": "_group",
          "type": "tuple[]"
        },
        {
          "internalType": "uint256",
          "name": "_threshold",
          "type": "uint256"
        },
        {
          "internalType": "string",
          "name": "_label",
          "type": "string"
        }
      ],
      "name": "groupCreation",
      "outputs": [],
      "payable": false,
      "stateMutability": "nonpayable",
      "type": "function"
    }
  ],
  "bytecode": "0x608060405260008060006101000a81548160ff02191690831515021790555034801561002a57600080fd5b506106728061003a6000396000f3fe608060405234801561001057600080fd5b506004361061004c5760003560e01c8063038caef814610051578063293cb2ec1461006d57806392d0d1531461008b578063c9e525df146100a9575b600080fd5b61006b600480360361006691908101906102c1565b6100c7565b005b610075610157565b60405161008291906104a3565b60405180910390f35b610093610169565b6040516100a091906104be565b60405180910390f35b6100b161016f565b6040516100be91906104be565b60405180910390f35b6000809054906101000a900460ff16156100e057600080fd5b60016000806101000a81548160ff0219169083151502179055508251600181905550600154821061011057600080fd5b816002819055507f82672eb5e6c44c55e91280a329a9e88093477274f1e0249369f0633c0dfb265d83838360405161014a9392919061045e565b60405180910390a1505050565b6000809054906101000a900460ff1681565b60025481565b60015481565b600082601f83011261018657600080fd5b813561019961019482610506565b6104d9565b915081818352602084019350602081019050838560608402820111156101be57600080fd5b60005b838110156101ee57816101d4888261024c565b8452602084019350606083019250506001810190506101c1565b5050505092915050565b600082601f83011261020957600080fd5b813561021c6102178261052e565b6104d9565b9150808252602083016020830185838301111561023857600080fd5b6102438382846105c5565b50505092915050565b60006060828403121561025e57600080fd5b61026860606104d9565b90506000610278848285016102ac565b600083015250602061028c848285016102ac565b60208301525060406102a0848285016102ac565b60408301525092915050565b6000813590506102bb81610618565b92915050565b6000806000606084860312156102d657600080fd5b600084013567ffffffffffffffff8111156102f057600080fd5b6102fc86828701610175565b935050602061030d868287016102ac565b925050604084013567ffffffffffffffff81111561032a57600080fd5b610336868287016101f8565b9150509250925092565b600061034c83836103fe565b60608301905092915050565b60006103638261056a565b61036d818561058d565b93506103788361055a565b8060005b838110156103a95781516103908882610340565b975061039b83610580565b92505060018101905061037c565b5085935050505092915050565b6103bf816105af565b82525050565b60006103d082610575565b6103da818561059e565b93506103ea8185602086016105d4565b6103f381610607565b840191505092915050565b6060820160008201516104146000850182610440565b5060208201516104276020850182610440565b50604082015161043a6040850182610440565b50505050565b610449816105bb565b82525050565b610458816105bb565b82525050565b600060608201905081810360008301526104788186610358565b9050610487602083018561044f565b818103604083015261049981846103c5565b9050949350505050565b60006020820190506104b860008301846103b6565b92915050565b60006020820190506104d3600083018461044f565b92915050565b6000604051905081810181811067ffffffffffffffff821117156104fc57600080fd5b8060405250919050565b600067ffffffffffffffff82111561051d57600080fd5b602082029050602081019050919050565b600067ffffffffffffffff82111561054557600080fd5b601f19601f8301169050602081019050919050565b6000819050602082019050919050565b600081519050919050565b600081519050919050565b6000602082019050919050565b600082825260208201905092915050565b600082825260208201905092915050565b60008115159050919050565b6000819050919050565b82818337600083830152505050565b60005b838110156105f25780820151818401526020810190506105d7565b83811115610601576000848401525b50505050565b6000601f19601f8301169050919050565b610621816105bb565b811461062c57600080fd5b5056fea365627a7a72315820f6e0e24e86d4094084b9282f7d58b1d2720ba101f75c6b490ef2ce3b3bbbcba66c6578706572696d656e74616cf564736f6c63430005100040",
  "source": "pragma solidity >=0.5.0;\npragma experimental ABIEncoderV2;\n\ncontract TOAD{\n    ///private variables\n\n    /// public variables\n    bool public has_been_used = false;\n    uint public N;\n    uint public t;\n\n    ///structures\n    struct EncryptedAccount{\n        uint256 e_tag;\n        uint256 e_sk;\n        uint256 e_pk;\n    }\n\n    event GroupCreation(EncryptedAccount[] group, uint threshold, string label);\n\n    function groupCreation(\n        EncryptedAccount[] memory _group, \n        uint _threshold, \n        string memory _label\n        ) public {\n        \n        require(!has_been_used);\n        has_been_used = true;\n\n        N = _group.length;\n        require(_threshold < N);\n        t = _threshold;\n\n        emit GroupCreation(_group, _threshold, _label);\n    }\n}",
  "sourcePath": "/home/alexis/Documents/Stage Disc/TOAD/contracts/TOAD.sol",
  "compiler": {
    "name": "solc",
    "version": "0.5.16+commit.9c3226ce.Emscripten.clang"
  },
  "schemaVersion": "3.3.1",
  "updatedAt": "2021-02-03T09:34:22.559Z",
  "networkType": "ethereum",
  "devdoc": {
    "methods": {}
  },
  "userdoc": {
    "methods": {}
  }
}