{
  "contractName": "TOAD",
  "abi": [
    {
      "anonymous": false,
      "inputs": [
        {
          "indexed": false,
          "internalType": "uint256",
          "name": "round",
          "type": "uint256"
        }
      ],
      "name": "GenerateNewKeys",
      "type": "event"
    },
    {
      "anonymous": false,
      "inputs": [
        {
          "components": [
            {
              "internalType": "bytes",
              "name": "e_sk",
              "type": "bytes"
            },
            {
              "internalType": "bytes",
              "name": "tag",
              "type": "bytes"
            },
            {
              "internalType": "bytes",
              "name": "nonce",
              "type": "bytes"
            }
          ],
          "indexed": false,
          "internalType": "struct TOAD.EncryptedAccount[]",
          "name": "group",
          "type": "tuple[]"
        },
        {
          "indexed": false,
          "internalType": "uint256",
          "name": "threshold",
          "type": "uint256"
        }
      ],
      "name": "GroupCreation",
      "type": "event"
    },
    {
      "anonymous": false,
      "inputs": [
        {
          "indexed": false,
          "internalType": "uint256[2]",
          "name": "gpk",
          "type": "uint256[2]"
        },
        {
          "indexed": false,
          "internalType": "uint256",
          "name": "anonymous_id",
          "type": "uint256"
        },
        {
          "indexed": false,
          "internalType": "uint256",
          "name": "round",
          "type": "uint256"
        }
      ],
      "name": "GroupKey",
      "type": "event"
    },
    {
      "anonymous": false,
      "inputs": [],
      "name": "MasterGroupKeyAvailable",
      "type": "event"
    },
    {
      "anonymous": false,
      "inputs": [
        {
          "indexed": false,
          "internalType": "address",
          "name": "sender",
          "type": "address"
        },
        {
          "indexed": false,
          "internalType": "uint256",
          "name": "round",
          "type": "uint256"
        },
        {
          "indexed": false,
          "internalType": "bytes",
          "name": "file_hash",
          "type": "bytes"
        },
        {
          "indexed": false,
          "internalType": "uint256[4]",
          "name": "c1",
          "type": "uint256[4]"
        },
        {
          "indexed": false,
          "internalType": "uint256[4]",
          "name": "c2",
          "type": "uint256[4]"
        }
      ],
      "name": "NewMessage",
      "type": "event"
    },
    {
      "anonymous": false,
      "inputs": [
        {
          "indexed": false,
          "internalType": "uint256[2]",
          "name": "public_key",
          "type": "uint256[2]"
        },
        {
          "indexed": false,
          "internalType": "uint256",
          "name": "anonymous_id",
          "type": "uint256"
        }
      ],
      "name": "PublicKey",
      "type": "event"
    },
    {
      "anonymous": false,
      "inputs": [
        {
          "indexed": false,
          "internalType": "uint256[]",
          "name": "shares",
          "type": "uint256[]"
        },
        {
          "indexed": false,
          "internalType": "uint256",
          "name": "round",
          "type": "uint256"
        }
      ],
      "name": "Share",
      "type": "event"
    },
    {
      "anonymous": false,
      "inputs": [
        {
          "indexed": false,
          "internalType": "address",
          "name": "sender",
          "type": "address"
        },
        {
          "indexed": false,
          "internalType": "uint256",
          "name": "id",
          "type": "uint256"
        },
        {
          "indexed": false,
          "internalType": "uint256[4]",
          "name": "share",
          "type": "uint256[4]"
        },
        {
          "indexed": false,
          "internalType": "uint256[2]",
          "name": "proof",
          "type": "uint256[2]"
        }
      ],
      "name": "ShareForDec",
      "type": "event"
    },
    {
      "constant": true,
      "inputs": [],
      "name": "N",
      "outputs": [
        {
          "internalType": "uint256",
          "name": "",
          "type": "uint256"
        }
      ],
      "payable": false,
      "stateMutability": "view",
      "type": "function"
    },
    {
      "constant": true,
      "inputs": [
        {
          "internalType": "uint256",
          "name": "",
          "type": "uint256"
        }
      ],
      "name": "gpk_list",
      "outputs": [
        {
          "internalType": "uint256",
          "name": "anonymousId",
          "type": "uint256"
        }
      ],
      "payable": false,
      "stateMutability": "view",
      "type": "function"
    },
    {
      "constant": true,
      "inputs": [],
      "name": "has_been_used",
      "outputs": [
        {
          "internalType": "bool",
          "name": "",
          "type": "bool"
        }
      ],
      "payable": false,
      "stateMutability": "view",
      "type": "function"
    },
    {
      "constant": true,
      "inputs": [],
      "name": "is_mpk_available",
      "outputs": [
        {
          "internalType": "bool",
          "name": "",
          "type": "bool"
        }
      ],
      "payable": false,
      "stateMutability": "view",
      "type": "function"
    },
    {
      "constant": true,
      "inputs": [],
      "name": "nb_group_key",
      "outputs": [
        {
          "internalType": "uint256",
          "name": "",
          "type": "uint256"
        }
      ],
      "payable": false,
      "stateMutability": "view",
      "type": "function"
    },
    {
      "constant": true,
      "inputs": [],
      "name": "public_account",
      "outputs": [
        {
          "internalType": "address",
          "name": "",
          "type": "address"
        }
      ],
      "payable": false,
      "stateMutability": "view",
      "type": "function"
    },
    {
      "constant": true,
      "inputs": [],
      "name": "round",
      "outputs": [
        {
          "internalType": "uint256",
          "name": "",
          "type": "uint256"
        }
      ],
      "payable": false,
      "stateMutability": "view",
      "type": "function"
    },
    {
      "constant": true,
      "inputs": [],
      "name": "t",
      "outputs": [
        {
          "internalType": "uint256",
          "name": "",
          "type": "uint256"
        }
      ],
      "payable": false,
      "stateMutability": "view",
      "type": "function"
    },
    {
      "constant": false,
      "inputs": [
        {
          "components": [
            {
              "internalType": "bytes",
              "name": "e_sk",
              "type": "bytes"
            },
            {
              "internalType": "bytes",
              "name": "tag",
              "type": "bytes"
            },
            {
              "internalType": "bytes",
              "name": "nonce",
              "type": "bytes"
            }
          ],
          "internalType": "struct TOAD.EncryptedAccount[]",
          "name": "_group",
          "type": "tuple[]"
        },
        {
          "internalType": "uint256",
          "name": "_threshold",
          "type": "uint256"
        }
      ],
      "name": "groupCreation",
      "outputs": [],
      "payable": false,
      "stateMutability": "nonpayable",
      "type": "function"
    },
    {
      "constant": false,
      "inputs": [
        {
          "internalType": "uint256[2]",
          "name": "_public_key",
          "type": "uint256[2]"
        },
        {
          "internalType": "uint256",
          "name": "_anonymous_id",
          "type": "uint256"
        }
      ],
      "name": "publish_pk",
      "outputs": [],
      "payable": false,
      "stateMutability": "nonpayable",
      "type": "function"
    },
    {
      "constant": false,
      "inputs": [
        {
          "internalType": "uint256[]",
          "name": "_shares",
          "type": "uint256[]"
        }
      ],
      "name": "publish_share",
      "outputs": [],
      "payable": false,
      "stateMutability": "nonpayable",
      "type": "function"
    },
    {
      "constant": false,
      "inputs": [
        {
          "internalType": "uint256[2]",
          "name": "_gpk",
          "type": "uint256[2]"
        },
        {
          "internalType": "uint256",
          "name": "_anonymous_id",
          "type": "uint256"
        },
        {
          "internalType": "uint256",
          "name": "_round",
          "type": "uint256"
        }
      ],
      "name": "register_group_key",
      "outputs": [],
      "payable": false,
      "stateMutability": "nonpayable",
      "type": "function"
    },
    {
      "constant": true,
      "inputs": [],
      "name": "get_group_keys",
      "outputs": [
        {
          "components": [
            {
              "internalType": "uint256",
              "name": "anonymousId",
              "type": "uint256"
            },
            {
              "internalType": "uint256[2]",
              "name": "gpk",
              "type": "uint256[2]"
            }
          ],
          "internalType": "struct TOAD.GroupKeyWithId[]",
          "name": "",
          "type": "tuple[]"
        }
      ],
      "payable": false,
      "stateMutability": "view",
      "type": "function"
    },
    {
      "constant": false,
      "inputs": [
        {
          "internalType": "bytes",
          "name": "file_hash",
          "type": "bytes"
        },
        {
          "internalType": "uint256[4]",
          "name": "c1",
          "type": "uint256[4]"
        },
        {
          "internalType": "uint256[4]",
          "name": "c2",
          "type": "uint256[4]"
        }
      ],
      "name": "send_msg",
      "outputs": [],
      "payable": false,
      "stateMutability": "nonpayable",
      "type": "function"
    },
    {
      "constant": false,
      "inputs": [
        {
          "internalType": "uint256",
          "name": "_round",
          "type": "uint256"
        },
        {
          "internalType": "uint256[4]",
          "name": "_share",
          "type": "uint256[4]"
        },
        {
          "internalType": "uint256[2]",
          "name": "_proof",
          "type": "uint256[2]"
        }
      ],
      "name": "share_for_dec",
      "outputs": [],
      "payable": false,
      "stateMutability": "nonpayable",
      "type": "function"
    }
  ],
  "bytecode": "0x608060405260008060006101000a81548160ff02191690831515021790555060008060016101000a81548160ff021916908315150217905550600060055534801561004957600080fd5b50611b4d806100596000396000f3fe608060405234801561001057600080fd5b50600436106100f55760003560e01c80638000d35411610097578063ac9ad7b811610066578063ac9ad7b81461024e578063bea33f921461026a578063c9e525df14610288578063ec71e50c146102a6576100f5565b80638000d354146101c657806387eb8ae9146101f657806392d0d153146102145780639da8537a14610232576100f5565b8063293cb2ec116100d3578063293cb2ec146101545780634728bfa71461017257806356a763b51461018e5780635db10c94146101aa576100f5565b80631131fa60146100fa578063146ca5311461011857806326cf529814610136575b600080fd5b6101026102c2565b60405161010f919061151a565b60405180910390f35b6101206102e8565b60405161012d9190611773565b60405180910390f35b61013e6102ee565b60405161014b9190611606565b60405180910390f35b61015c61039c565b60405161016991906116b8565b60405180910390f35b61018c60048036036101879190810190610e34565b6103ae565b005b6101a860048036036101a39190810190610ec4565b610557565b005b6101c460048036036101bf9190810190610e83565b61063d565b005b6101e060048036036101db9190810190610f2c565b61070b565b6040516101ed9190611773565b60405180910390f35b6101fe610736565b60405161020b91906116b8565b60405180910390f35b61021c610749565b6040516102299190611773565b60405180910390f35b61024c60048036036102479190810190610df8565b61074f565b005b61026860048036036102639190810190610da4565b61081c565b005b61027261095e565b60405161027f9190611773565b60405180910390f35b610290610964565b60405161029d9190611773565b60405180910390f35b6102c060048036036102bb9190810190610f55565b61096a565b005b600360009054906101000a900473ffffffffffffffffffffffffffffffffffffffff1681565b60045481565b60606006805480602002602001604051908101604052809291908181526020016000905b828210156103935783829060005260206000209060030201604051806040016040529081600082015481526020016001820160028060200260405190810160405280929190826002801561037b576020028201915b815481526020019060010190808311610367575b50505050508152505081526020019060010190610312565b50505050905090565b6000809054906101000a900460ff1681565b600360009054906101000a900473ffffffffffffffffffffffffffffffffffffffff1673ffffffffffffffffffffffffffffffffffffffff163373ffffffffffffffffffffffffffffffffffffffff161461043e576040517f08c379a000000000000000000000000000000000000000000000000000000000815260040161043590611713565b60405180910390fd5b7fa27ceb9453f12631ffb629693e93729fdf50033f4a52265898dbf04ca97e1ade83838360405161047193929190611651565b60405180910390a16000811415610552576001600560008282540192505081905550600660405180604001604052808481526020018581525090806001815401808255809150509060018203906000526020600020906003020160009091929091909150600082015181600001556020820151816001019060026104f69291906109fb565b505050506001600254016005541415610551576001600060016101000a81548160ff0219169083151502179055507fcef48ede0cb1072eb5a225ce62cc287f38210d06f4e3eacef9cf7fa7f78b09bb60405160405180910390a15b5b505050565b600060019054906101000a900460ff166105a6576040517f08c379a000000000000000000000000000000000000000000000000000000000815260040161059d90611733565b60405180910390fd5b7f3f7055ad274fe6f7a8d065a0798cd3489665cd6d207a220ca42999f17166b86f336004548585856040516105df95949392919061157b565b60405180910390a16000600454111561062c577f59883b3ff144b03efffcd047e8eea14b853f611b162bed2f2a561041c7c31f576004546040516106239190611773565b60405180910390a15b600160045401600481905550505050565b600360009054906101000a900473ffffffffffffffffffffffffffffffffffffffff1673ffffffffffffffffffffffffffffffffffffffff163373ffffffffffffffffffffffffffffffffffffffff16146106cd576040517f08c379a00000000000000000000000000000000000000000000000000000000081526004016106c490611713565b60405180910390fd5b7fdb12755b28c95d48eb64cd0360e26d58ced66e965148e71d2c22cf4254ed65e181600454604051610700929190611688565b60405180910390a150565b6006818154811061071857fe5b90600052602060002090600302016000915090508060000154905081565b600060019054906101000a900460ff1681565b60025481565b600360009054906101000a900473ffffffffffffffffffffffffffffffffffffffff1673ffffffffffffffffffffffffffffffffffffffff163373ffffffffffffffffffffffffffffffffffffffff16146107df576040517f08c379a00000000000000000000000000000000000000000000000000000000081526004016107d690611713565b60405180910390fd5b7fd8b5cd32d815dc1d121ad4c6586b9fa532f24a2e597bda40050fe78dfce711348282604051610810929190611628565b60405180910390a15050565b6000809054906101000a900460ff161561086b576040517f08c379a0000000000000000000000000000000000000000000000000000000008152600401610862906116d3565b60405180910390fd5b60016000806101000a81548160ff021916908315150217905550815160018190555060015481106108d1576040517f08c379a00000000000000000000000000000000000000000000000000000000081526004016108c890611753565b60405180910390fd5b8060028190555033600360006101000a81548173ffffffffffffffffffffffffffffffffffffffff021916908373ffffffffffffffffffffffffffffffffffffffff16021790555060006004819055507f8f6ffb85141685428301d25c3cf0ac5c94887d88d7571f5ea7dd8a4444b0f33282826040516109529291906115d6565b60405180910390a15050565b60055481565b60015481565b600060019054906101000a900460ff166109b9576040517f08c379a00000000000000000000000000000000000000000000000000000000081526004016109b0906116f3565b60405180910390fd5b7faf68c8c1fc9d028d4bf2d1e25dd1ffb39175d0dbc73b71284179222eceabf981338484846040516109ee9493929190611535565b60405180910390a1505050565b8260028101928215610a2a579160200282015b82811115610a29578251825591602001919060010190610a0e565b5b509050610a379190610a3b565b5090565b610a5d91905b80821115610a59576000816000905550600101610a41565b5090565b90565b600082601f830112610a7157600080fd5b8135610a84610a7f826117bb565b61178e565b9150818183526020840193506020810190508360005b83811015610aca5781358601610ab08882610ce7565b845260208401935060208301925050600181019050610a9a565b5050505092915050565b600082601f830112610ae557600080fd5b6002610af8610af3826117e3565b61178e565b91508183856020840282011115610b0e57600080fd5b60005b83811015610b3e5781610b248882610d8f565b845260208401935060208301925050600181019050610b11565b5050505092915050565b600082601f830112610b5957600080fd5b6004610b6c610b6782611805565b61178e565b91508183856020840282011115610b8257600080fd5b60005b83811015610bb25781610b988882610d8f565b845260208401935060208301925050600181019050610b85565b5050505092915050565b600082601f830112610bcd57600080fd5b8135610be0610bdb82611827565b61178e565b91508181835260208401935060208101905083856020840282011115610c0557600080fd5b60005b83811015610c355781610c1b8882610d8f565b845260208401935060208301925050600181019050610c08565b5050505092915050565b600082601f830112610c5057600080fd5b8135610c63610c5e8261184f565b61178e565b91508082526020830160208301858383011115610c7f57600080fd5b610c8a838284611aa0565b50505092915050565b600082601f830112610ca457600080fd5b8135610cb7610cb28261187b565b61178e565b91508082526020830160208301858383011115610cd357600080fd5b610cde838284611aa0565b50505092915050565b600060608284031215610cf957600080fd5b610d03606061178e565b9050600082013567ffffffffffffffff811115610d1f57600080fd5b610d2b84828501610c3f565b600083015250602082013567ffffffffffffffff811115610d4b57600080fd5b610d5784828501610c3f565b602083015250604082013567ffffffffffffffff811115610d7757600080fd5b610d8384828501610c3f565b60408301525092915050565b600081359050610d9e81611af3565b92915050565b60008060408385031215610db757600080fd5b600083013567ffffffffffffffff811115610dd157600080fd5b610ddd85828601610a60565b9250506020610dee85828601610d8f565b9150509250929050565b60008060608385031215610e0b57600080fd5b6000610e1985828601610ad4565b9250506040610e2a85828601610d8f565b9150509250929050565b600080600060808486031215610e4957600080fd5b6000610e5786828701610ad4565b9350506040610e6886828701610d8f565b9250506060610e7986828701610d8f565b9150509250925092565b600060208284031215610e9557600080fd5b600082013567ffffffffffffffff811115610eaf57600080fd5b610ebb84828501610bbc565b91505092915050565b60008060006101208486031215610eda57600080fd5b600084013567ffffffffffffffff811115610ef457600080fd5b610f0086828701610c93565b9350506020610f1186828701610b48565b92505060a0610f2286828701610b48565b9150509250925092565b600060208284031215610f3e57600080fd5b6000610f4c84828501610d8f565b91505092915050565b600080600060e08486031215610f6a57600080fd5b6000610f7886828701610d8f565b9350506020610f8986828701610b48565b92505060a0610f9a86828701610ad4565b9150509250925092565b6000610fb0838361146f565b905092915050565b6000610fc483836114cd565b60608301905092915050565b6000610fdc83836114fc565b60208301905092915050565b610ff181611a6a565b82525050565b61100081611a22565b82525050565b6000611011826118f5565b61101b818561199b565b93508360208202850161102d856118a7565b8060005b85811015611069578484038952815161104a8582610fa4565b94506110558361194d565b925060208a01995050600181019050611031565b50829750879550505050505092915050565b600061108682611900565b61109081856119ac565b935061109b836118b7565b8060005b838110156110cc5781516110b38882610fb8565b97506110be8361195a565b92505060018101905061109f565b5085935050505092915050565b6110e281611916565b6110ec81846119c8565b92506110f7826118d1565b8060005b8381101561112857815161110f8782610fd0565b965061111a83611974565b9250506001810190506110fb565b505050505050565b6111398161190b565b61114381846119bd565b925061114e826118c7565b8060005b8381101561117f5781516111668782610fd0565b965061117183611967565b925050600181019050611152565b505050505050565b61119081611921565b61119a81846119d3565b92506111a5826118db565b8060005b838110156111d65781516111bd8782610fd0565b96506111c883611981565b9250506001810190506111a9565b505050505050565b60006111e98261192c565b6111f381856119de565b93506111fe836118e5565b8060005b8381101561122f5781516112168882610fd0565b97506112218361198e565b925050600181019050611202565b5085935050505092915050565b61124581611a34565b82525050565b600061125682611942565b6112608185611a00565b9350611270818560208601611aaf565b61127981611ae2565b840191505092915050565b600061128f82611937565b61129981856119ef565b93506112a9818560208601611aaf565b6112b281611ae2565b840191505092915050565b60006112ca601583611a11565b91507f67726f757020616c7265616479206372656174656400000000000000000000006000830152602082019050919050565b600061130a601483611a11565b91507f6e6f206d65737361676520617661696c61626c650000000000000000000000006000830152602082019050919050565b600061134a604683611a11565b91507f6f6e6c7920757365722077686f20686176652061636365737320746f2074686560008301527f207075626c6963206163636f756e742063616e2063616c6c207468697320667560208301527f6e6374696f6e00000000000000000000000000000000000000000000000000006040830152606082019050919050565b60006113d6601b83611a11565b91507f6d6173746572206b6579206973206e6f7420617661696c61626c6500000000006000830152602082019050919050565b6000611416602283611a11565b91507f7468726573686f6c64206d7573742073617469736679207468726573686f6c6460008301527f3c4e0000000000000000000000000000000000000000000000000000000000006020830152604082019050919050565b6000606083016000830151848203600086015261148c8282611284565b915050602083015184820360208601526114a68282611284565b915050604083015184820360408601526114c08282611284565b9150508091505092915050565b6060820160008201516114e360008501826114fc565b5060208201516114f66020850182611130565b50505050565b61150581611a60565b82525050565b61151481611a60565b82525050565b600060208201905061152f6000830184610ff7565b92915050565b60006101008201905061154b6000830187610fe8565b611558602083018661150b565b6115656040830185611187565b61157260c08301846110d9565b95945050505050565b6000610160820190506115916000830188610fe8565b61159e602083018761150b565b81810360408301526115b0818661124b565b90506115bf6060830185611187565b6115cc60e0830184611187565b9695505050505050565b600060408201905081810360008301526115f08185611006565b90506115ff602083018461150b565b9392505050565b60006020820190508181036000830152611620818461107b565b905092915050565b600060608201905061163d60008301856110d9565b61164a604083018461150b565b9392505050565b600060808201905061166660008301866110d9565b611673604083018561150b565b611680606083018461150b565b949350505050565b600060408201905081810360008301526116a281856111de565b90506116b1602083018461150b565b9392505050565b60006020820190506116cd600083018461123c565b92915050565b600060208201905081810360008301526116ec816112bd565b9050919050565b6000602082019050818103600083015261170c816112fd565b9050919050565b6000602082019050818103600083015261172c8161133d565b9050919050565b6000602082019050818103600083015261174c816113c9565b9050919050565b6000602082019050818103600083015261176c81611409565b9050919050565b6000602082019050611788600083018461150b565b92915050565b6000604051905081810181811067ffffffffffffffff821117156117b157600080fd5b8060405250919050565b600067ffffffffffffffff8211156117d257600080fd5b602082029050602081019050919050565b600067ffffffffffffffff8211156117fa57600080fd5b602082029050919050565b600067ffffffffffffffff82111561181c57600080fd5b602082029050919050565b600067ffffffffffffffff82111561183e57600080fd5b602082029050602081019050919050565b600067ffffffffffffffff82111561186657600080fd5b601f19601f8301169050602081019050919050565b600067ffffffffffffffff82111561189257600080fd5b601f19601f8301169050602081019050919050565b6000819050602082019050919050565b6000819050602082019050919050565b6000819050919050565b6000819050919050565b6000819050919050565b6000819050602082019050919050565b600081519050919050565b600081519050919050565b600060029050919050565b600060029050919050565b600060049050919050565b600081519050919050565b600081519050919050565b600081519050919050565b6000602082019050919050565b6000602082019050919050565b6000602082019050919050565b6000602082019050919050565b6000602082019050919050565b6000602082019050919050565b600082825260208201905092915050565b600082825260208201905092915050565b600081905092915050565b600081905092915050565b600081905092915050565b600082825260208201905092915050565b600082825260208201905092915050565b600082825260208201905092915050565b600082825260208201905092915050565b6000611a2d82611a40565b9050919050565b60008115159050919050565b600073ffffffffffffffffffffffffffffffffffffffff82169050919050565b6000819050919050565b6000611a7582611a7c565b9050919050565b6000611a8782611a8e565b9050919050565b6000611a9982611a40565b9050919050565b82818337600083830152505050565b60005b83811015611acd578082015181840152602081019050611ab2565b83811115611adc576000848401525b50505050565b6000601f19601f8301169050919050565b611afc81611a60565b8114611b0757600080fd5b5056fea365627a7a72315820759ec8c66798168866e3e1f9374aebcfc59cc4d82cac89072df601c547e432b66c6578706572696d656e74616cf564736f6c63430005100040",
  "source": "pragma solidity >=0.5.0;\npragma experimental ABIEncoderV2;\n\ncontract TOAD{\n    ///private variables\n\n    /// public variables\n    bool public has_been_used = false;\n    bool public is_mpk_available = false;\n    uint public N;\n    uint public t;\n    address public public_account;\n    uint public round;\n    uint public nb_group_key = 0;\n\n    GroupKeyWithId[] public gpk_list;\n\n    ///structures\n    struct EncryptedAccount{\n        bytes e_sk;\n        bytes tag;\n        bytes nonce;\n    }\n\n    struct GroupKeyWithId{\n        uint anonymousId;\n        uint256[2] gpk;\n    }\n\n    ///events\n    event GroupCreation(EncryptedAccount[] group, uint threshold);\n    event PublicKey(uint256[2] public_key, uint anonymous_id);\n    event Share(uint256[] shares, uint round);\n    event GroupKey(uint256[2] gpk, uint anonymous_id, uint round);\n    event MasterGroupKeyAvailable();\n    event ShareForDec(address sender, uint id, uint256[4] share, uint256[2] proof);\n    event NewMessage(address sender, uint round, bytes file_hash, uint256[4] c1, uint256[4] c2);\n    event GenerateNewKeys(uint round);\n\n    function groupCreation(\n        EncryptedAccount[] memory _group,\n        uint _threshold\n        ) public {\n\n        require(!has_been_used,'group already created');\n        has_been_used = true;\n\n        N = _group.length;\n        require(_threshold < N,'threshold must satisfy threshold<N');\n        t = _threshold;\n        public_account = msg.sender;\n        round = 0;\n\n        emit GroupCreation(_group, _threshold);\n    }\n\n    function publish_pk(uint256[2] memory _public_key, uint _anonymous_id) public{\n        require(msg.sender == public_account, 'only user who have access to the public account can call this function');\n        emit PublicKey(_public_key, _anonymous_id);\n    }\n\n    function publish_share(uint256[] memory _shares) public{\n        require(msg.sender == public_account, 'only user who have access to the public account can call this function');\n        emit Share(_shares, round);\n    }\n\n    function register_group_key(uint256[2] memory _gpk, uint _anonymous_id, uint _round)public{\n        require(msg.sender == public_account,'only user who have access to the public account can call this function');\n\n        emit GroupKey(_gpk, _anonymous_id, _round);\n\n        if(_round == 0){\n            nb_group_key +=1;\n            gpk_list.push(GroupKeyWithId(_anonymous_id, _gpk));\n            if(nb_group_key == t +1){\n                is_mpk_available = true;\n                emit MasterGroupKeyAvailable();\n            }\n        }\n    }\n\n    function get_group_keys()public view returns(GroupKeyWithId[] memory){\n        return gpk_list;\n    }\n\n    function send_msg(bytes memory file_hash, uint256[4] memory c1, uint256[4] memory c2) public{\n        require(is_mpk_available, 'master key is not available');\n        emit NewMessage(msg.sender,round, file_hash, c1, c2);\n        if (round>0){\n            emit GenerateNewKeys(round);\n        }\n        round = round + 1;\n    }\n\n    function share_for_dec(uint _round, uint256[4] memory _share, uint256[2] memory _proof) public{\n        require(is_mpk_available, 'no message available');\n        emit ShareForDec(msg.sender, _round, _share, _proof);\n    }\n\n}\n",
  "sourcePath": "/home/promo21/a.vandewalle/3A/Stage DISC/TOAD/contracts/TOAD.sol",
  "compiler": {
    "name": "solc",
    "version": "0.5.16+commit.9c3226ce.Emscripten.clang"
  },
  "schemaVersion": "3.3.4",
  "updatedAt": "2021-02-17T09:47:50.529Z",
  "networkType": "ethereum",
  "devdoc": {
    "methods": {}
  },
  "userdoc": {
    "methods": {}
  }
}