{
  "contractName": "TOAD",
  "abi": [
    {
      "anonymous": false,
      "inputs": [
        {
          "indexed": false,
          "internalType": "uint256",
          "name": "round",
          "type": "uint256"
        }
      ],
      "name": "GenerateNewKeys",
      "type": "event"
    },
    {
      "anonymous": false,
      "inputs": [
        {
          "indexed": false,
          "internalType": "address",
          "name": "creator",
          "type": "address"
        }
      ],
      "name": "GroupCreation",
      "type": "event"
    },
    {
      "anonymous": false,
      "inputs": [
        {
          "indexed": false,
          "internalType": "uint256[2]",
          "name": "gpk",
          "type": "uint256[2]"
        },
        {
          "indexed": false,
          "internalType": "uint256",
          "name": "anonymous_id",
          "type": "uint256"
        },
        {
          "indexed": false,
          "internalType": "uint256",
          "name": "round",
          "type": "uint256"
        }
      ],
      "name": "GroupKey",
      "type": "event"
    },
    {
      "anonymous": false,
      "inputs": [],
      "name": "MasterGroupKeyAvailable",
      "type": "event"
    },
    {
      "anonymous": false,
      "inputs": [
        {
          "indexed": false,
          "internalType": "address",
          "name": "sender",
          "type": "address"
        },
        {
          "indexed": false,
          "internalType": "uint256",
          "name": "round",
          "type": "uint256"
        },
        {
          "indexed": false,
          "internalType": "bytes",
          "name": "file_hash",
          "type": "bytes"
        },
        {
          "indexed": false,
          "internalType": "uint256[2]",
          "name": "c1",
          "type": "uint256[2]"
        },
        {
          "indexed": false,
          "internalType": "uint256[2]",
          "name": "c2",
          "type": "uint256[2]"
        }
      ],
      "name": "NewMessage",
      "type": "event"
    },
    {
      "anonymous": false,
      "inputs": [
        {
          "indexed": false,
          "internalType": "uint256[2]",
          "name": "public_key",
          "type": "uint256[2]"
        },
        {
          "indexed": false,
          "internalType": "uint256",
          "name": "anonymous_id",
          "type": "uint256"
        },
        {
          "indexed": false,
          "internalType": "uint256",
          "name": "round",
          "type": "uint256"
        }
      ],
      "name": "PublicKey",
      "type": "event"
    },
    {
      "anonymous": false,
      "inputs": [
        {
          "indexed": false,
          "internalType": "bytes[]",
          "name": "shares",
          "type": "bytes[]"
        },
        {
          "indexed": false,
          "internalType": "uint256",
          "name": "round",
          "type": "uint256"
        },
        {
          "indexed": false,
          "internalType": "uint256",
          "name": "anonymous_id",
          "type": "uint256"
        }
      ],
      "name": "Share",
      "type": "event"
    },
    {
      "anonymous": false,
      "inputs": [
        {
          "indexed": false,
          "internalType": "uint64",
          "name": "ui",
          "type": "uint64"
        },
        {
          "indexed": false,
          "internalType": "uint256",
          "name": "round",
          "type": "uint256"
        },
        {
          "indexed": false,
          "internalType": "uint256[2]",
          "name": "share",
          "type": "uint256[2]"
        },
        {
          "indexed": false,
          "internalType": "uint256[2]",
          "name": "proof",
          "type": "uint256[2]"
        }
      ],
      "name": "ShareForDec",
      "type": "event"
    },
    {
      "constant": true,
      "inputs": [],
      "name": "N",
      "outputs": [
        {
          "internalType": "uint256",
          "name": "",
          "type": "uint256"
        }
      ],
      "payable": false,
      "stateMutability": "view",
      "type": "function"
    },
    {
      "constant": true,
      "inputs": [
        {
          "internalType": "uint256",
          "name": "",
          "type": "uint256"
        }
      ],
      "name": "gpk_list",
      "outputs": [
        {
          "internalType": "uint256",
          "name": "anonymousId",
          "type": "uint256"
        }
      ],
      "payable": false,
      "stateMutability": "view",
      "type": "function"
    },
    {
      "constant": true,
      "inputs": [],
      "name": "has_been_used",
      "outputs": [
        {
          "internalType": "bool",
          "name": "",
          "type": "bool"
        }
      ],
      "payable": false,
      "stateMutability": "view",
      "type": "function"
    },
    {
      "constant": true,
      "inputs": [],
      "name": "is_mpk_available",
      "outputs": [
        {
          "internalType": "bool",
          "name": "",
          "type": "bool"
        }
      ],
      "payable": false,
      "stateMutability": "view",
      "type": "function"
    },
    {
      "constant": true,
      "inputs": [],
      "name": "nb_group_key",
      "outputs": [
        {
          "internalType": "uint256",
          "name": "",
          "type": "uint256"
        }
      ],
      "payable": false,
      "stateMutability": "view",
      "type": "function"
    },
    {
      "constant": true,
      "inputs": [],
      "name": "public_account",
      "outputs": [
        {
          "internalType": "address",
          "name": "",
          "type": "address"
        }
      ],
      "payable": false,
      "stateMutability": "view",
      "type": "function"
    },
    {
      "constant": true,
      "inputs": [],
      "name": "round",
      "outputs": [
        {
          "internalType": "uint256",
          "name": "",
          "type": "uint256"
        }
      ],
      "payable": false,
      "stateMutability": "view",
      "type": "function"
    },
    {
      "constant": true,
      "inputs": [],
      "name": "t",
      "outputs": [
        {
          "internalType": "uint256",
          "name": "",
          "type": "uint256"
        }
      ],
      "payable": false,
      "stateMutability": "view",
      "type": "function"
    },
    {
      "constant": false,
      "inputs": [
        {
          "components": [
            {
              "internalType": "bytes",
              "name": "e_sk",
              "type": "bytes"
            },
            {
              "internalType": "bytes",
              "name": "tag",
              "type": "bytes"
            },
            {
              "internalType": "bytes",
              "name": "nonce",
              "type": "bytes"
            }
          ],
          "internalType": "struct TOAD.EncryptedAccount[]",
          "name": "_group",
          "type": "tuple[]"
        },
        {
          "internalType": "uint256",
          "name": "_threshold",
          "type": "uint256"
        }
      ],
      "name": "groupCreation",
      "outputs": [],
      "payable": false,
      "stateMutability": "nonpayable",
      "type": "function"
    },
    {
      "constant": true,
      "inputs": [
        {
          "internalType": "uint256",
          "name": "i",
          "type": "uint256"
        }
      ],
      "name": "get_encrypted_public_account",
      "outputs": [
        {
          "internalType": "bytes[3]",
          "name": "",
          "type": "bytes[3]"
        }
      ],
      "payable": false,
      "stateMutability": "view",
      "type": "function"
    },
    {
      "constant": false,
      "inputs": [
        {
          "internalType": "uint256[2]",
          "name": "_public_key",
          "type": "uint256[2]"
        },
        {
          "internalType": "uint256",
          "name": "_anonymous_id",
          "type": "uint256"
        },
        {
          "internalType": "uint256",
          "name": "_round",
          "type": "uint256"
        }
      ],
      "name": "publish_pk",
      "outputs": [],
      "payable": false,
      "stateMutability": "nonpayable",
      "type": "function"
    },
    {
      "constant": false,
      "inputs": [
        {
          "internalType": "bytes[]",
          "name": "_shares",
          "type": "bytes[]"
        },
        {
          "internalType": "uint256",
          "name": "_round",
          "type": "uint256"
        },
        {
          "internalType": "uint256",
          "name": "_anonymous_id",
          "type": "uint256"
        }
      ],
      "name": "publish_share",
      "outputs": [],
      "payable": false,
      "stateMutability": "nonpayable",
      "type": "function"
    },
    {
      "constant": false,
      "inputs": [
        {
          "internalType": "uint256[2]",
          "name": "_gpk",
          "type": "uint256[2]"
        },
        {
          "internalType": "uint256",
          "name": "_anonymous_id",
          "type": "uint256"
        },
        {
          "internalType": "uint256",
          "name": "_round",
          "type": "uint256"
        }
      ],
      "name": "register_group_key",
      "outputs": [],
      "payable": false,
      "stateMutability": "nonpayable",
      "type": "function"
    },
    {
      "constant": true,
      "inputs": [],
      "name": "get_group_keys",
      "outputs": [
        {
          "components": [
            {
              "internalType": "uint256",
              "name": "anonymousId",
              "type": "uint256"
            },
            {
              "internalType": "uint256[2]",
              "name": "gpk",
              "type": "uint256[2]"
            }
          ],
          "internalType": "struct TOAD.GroupKeyWithId[]",
          "name": "",
          "type": "tuple[]"
        }
      ],
      "payable": false,
      "stateMutability": "view",
      "type": "function"
    },
    {
      "constant": false,
      "inputs": [
        {
          "internalType": "bytes",
          "name": "file_hash",
          "type": "bytes"
        },
        {
          "internalType": "uint256[2]",
          "name": "c1",
          "type": "uint256[2]"
        },
        {
          "internalType": "uint256[2]",
          "name": "c2",
          "type": "uint256[2]"
        }
      ],
      "name": "send_msg",
      "outputs": [],
      "payable": false,
      "stateMutability": "nonpayable",
      "type": "function"
    },
    {
      "constant": false,
      "inputs": [
        {
          "internalType": "uint64",
          "name": "_ui",
          "type": "uint64"
        },
        {
          "internalType": "uint256",
          "name": "_round",
          "type": "uint256"
        },
        {
          "internalType": "uint256[2]",
          "name": "_share",
          "type": "uint256[2]"
        },
        {
          "internalType": "uint256[2]",
          "name": "_proof",
          "type": "uint256[2]"
        }
      ],
      "name": "share_for_dec",
      "outputs": [],
      "payable": false,
      "stateMutability": "nonpayable",
      "type": "function"
    }
  ],
  "bytecode": "0x60806040526000600160006101000a81548160ff02191690831515021790555060006001806101000a81548160ff021916908315150217905550600060065534801561004a57600080fd5b50611e048061005a6000396000f3fe608060405234801561001057600080fd5b50600436106101005760003560e01c806387eb8ae911610097578063c9e525df11610066578063c9e525df14610277578063d2d0e30c14610295578063e23bfacd146102b1578063ec3b4220146102cd57610100565b806387eb8ae91461020157806392d0d1531461021f578063ac9ad7b81461023d578063bea33f921461025957610100565b8063293cb2ec116100d3578063293cb2ec1461017b5780634728bfa71461019957806354860f55146101b55780638000d354146101d157610100565b8063038312e3146101055780631131fa6014610121578063146ca5311461013f57806326cf52981461015d575b600080fd5b61011f600480360361011a9190810190611237565b6102fd565b005b6101296103e2565b6040516101369190611811565b60405180910390f35b610147610408565b6040516101549190611a15565b60405180910390f35b61016561040e565b6040516101729190611901565b60405180910390f35b6101836104bc565b604051610190919061195a565b60405180910390f35b6101b360048036036101ae91908101906111e8565b6104cf565b005b6101cf60048036036101ca919081019061112d565b610677565b005b6101eb60048036036101e6919081019061129e565b610747565b6040516101f89190611a15565b60405180910390f35b610209610772565b604051610216919061195a565b60405180910390f35b610227610784565b6040516102349190611a15565b60405180910390f35b61025760048036036102529190810190611194565b61078a565b005b610261610984565b60405161026e9190611a15565b60405180910390f35b61027f61098a565b60405161028c9190611a15565b60405180910390f35b6102af60048036036102aa91908101906112c7565b610990565b005b6102cb60048036036102c691908101906111e8565b610a21565b005b6102e760048036036102e2919081019061129e565b610af1565b6040516102f491906118a1565b60405180910390f35b6001809054906101000a900460ff1661034b576040517f08c379a0000000000000000000000000000000000000000000000000000000008152600401610342906119d5565b60405180910390fd5b7fd572f7aaa31d11c485075dcc1aa78c3eec323fc75b4c4a63f9c2eb6b3cd0484433600554858585604051610384959493929190611847565b60405180910390a1600060055411156103d1577f59883b3ff144b03efffcd047e8eea14b853f611b162bed2f2a561041c7c31f576005546040516103c89190611a15565b60405180910390a15b600160055401600581905550505050565b600460009054906101000a900473ffffffffffffffffffffffffffffffffffffffff1681565b60055481565b60606007805480602002602001604051908101604052809291908181526020016000905b828210156104b35783829060005260206000209060030201604051806040016040529081600082015481526020016001820160028060200260405190810160405280929190826002801561049b576020028201915b815481526020019060010190808311610487575b50505050508152505081526020019060010190610432565b50505050905090565b600160009054906101000a900460ff1681565b600460009054906101000a900473ffffffffffffffffffffffffffffffffffffffff1673ffffffffffffffffffffffffffffffffffffffff163373ffffffffffffffffffffffffffffffffffffffff161461055f576040517f08c379a0000000000000000000000000000000000000000000000000000000008152600401610556906119b5565b60405180910390fd5b7fa27ceb9453f12631ffb629693e93729fdf50033f4a52265898dbf04ca97e1ade83838360405161059293929190611923565b60405180910390a1600081141561067257600160066000828254019250508190555060076040518060400160405280848152602001858152509080600181540180825580915050906001820390600052602060002090600302016000909192909190915060008201518160000155602082015181600101906002610617929190610d4b565b5050505060016003540160065414156106715760018060016101000a81548160ff0219169083151502179055507fcef48ede0cb1072eb5a225ce62cc287f38210d06f4e3eacef9cf7fa7f78b09bb60405160405180910390a15b5b505050565b600460009054906101000a900473ffffffffffffffffffffffffffffffffffffffff1673ffffffffffffffffffffffffffffffffffffffff163373ffffffffffffffffffffffffffffffffffffffff1614610707576040517f08c379a00000000000000000000000000000000000000000000000000000000081526004016106fe906119b5565b60405180910390fd5b7f4f3609c3a5f0a1e0e9c7807399e6dcdb72bfa9c16dbcf05d7699cea3b9dd4d0d83838360405161073a939291906118c3565b60405180910390a1505050565b6007818154811061075457fe5b90600052602060002090600302016000915090508060000154905081565b6001809054906101000a900460ff1681565b60035481565b600160009054906101000a900460ff16156107da576040517f08c379a00000000000000000000000000000000000000000000000000000000081526004016107d190611975565b60405180910390fd5b60018060006101000a81548160ff02191690831515021790555081516002819055506002548110610840576040517f08c379a0000000000000000000000000000000000000000000000000000000008152600401610837906119f5565b60405180910390fd5b8060038190555033600460006101000a81548173ffffffffffffffffffffffffffffffffffffffff021916908373ffffffffffffffffffffffffffffffffffffffff160217905550600060058190555060008090505b6002548110156109485760008382815181106108ae57fe5b60200260200101519080600181540180825580915050906001820390600052602060002090600302016000909192909190915060008201518160000190805190602001906108fd929190610d8b565b50602082015181600101908051906020019061091a929190610d8b565b506040820151816002019080519060200190610937929190610d8b565b505050508080600101915050610896565b507f29c061f2eb0985db62e003bb476bae6a04966b78da770672434e779959193ff133604051610978919061182c565b60405180910390a15050565b60065481565b60025481565b6001809054906101000a900460ff166109de576040517f08c379a00000000000000000000000000000000000000000000000000000000081526004016109d590611995565b60405180910390fd5b7fe13a9e84c369578693e99c331233e86066a0e09d6a20e517fcc0f175fd886a2c84848484604051610a139493929190611a30565b60405180910390a150505050565b600460009054906101000a900473ffffffffffffffffffffffffffffffffffffffff1673ffffffffffffffffffffffffffffffffffffffff163373ffffffffffffffffffffffffffffffffffffffff1614610ab1576040517f08c379a0000000000000000000000000000000000000000000000000000000008152600401610aa8906119b5565b60405180910390fd5b7f483d8614b68f139b46d787304905a20e84b7f6b8effdd59f29612ef9a609c0a9838383604051610ae493929190611923565b60405180910390a1505050565b610af9610e0b565b6002548210610b0757600080fd5b604051806060016040528060008481548110610b1f57fe5b90600052602060002090600302016000018054600181600116156101000203166002900480601f016020809104026020016040519081016040528092919081815260200182805460018160011615610100020316600290048015610bc45780601f10610b9957610100808354040283529160200191610bc4565b820191906000526020600020905b815481529060010190602001808311610ba757829003601f168201915b5050505050815260200160008481548110610bdb57fe5b90600052602060002090600302016001018054600181600116156101000203166002900480601f016020809104026020016040519081016040528092919081815260200182805460018160011615610100020316600290048015610c805780601f10610c5557610100808354040283529160200191610c80565b820191906000526020600020905b815481529060010190602001808311610c6357829003601f168201915b5050505050815260200160008481548110610c9757fe5b90600052602060002090600302016002018054600181600116156101000203166002900480601f016020809104026020016040519081016040528092919081815260200182805460018160011615610100020316600290048015610d3c5780601f10610d1157610100808354040283529160200191610d3c565b820191906000526020600020905b815481529060010190602001808311610d1f57829003601f168201915b50505050508152509050919050565b8260028101928215610d7a579160200282015b82811115610d79578251825591602001919060010190610d5e565b5b509050610d879190610e32565b5090565b828054600181600116156101000203166002900490600052602060002090601f016020900481019282601f10610dcc57805160ff1916838001178555610dfa565b82800160010185558215610dfa579182015b82811115610df9578251825591602001919060010190610dde565b5b509050610e079190610e32565b5090565b60405180606001604052806003905b6060815260200190600190039081610e1a5790505090565b610e5491905b80821115610e50576000816000905550600101610e38565b5090565b90565b600082601f830112610e6857600080fd5b8135610e7b610e7682611aa2565b611a75565b9150818183526020840193506020810190508360005b83811015610ec15781358601610ea78882610fb3565b845260208401935060208301925050600181019050610e91565b5050505092915050565b600082601f830112610edc57600080fd5b8135610eef610eea82611aca565b611a75565b9150818183526020840193506020810190508360005b83811015610f355781358601610f1b888261105b565b845260208401935060208301925050600181019050610f05565b5050505092915050565b600082601f830112610f5057600080fd5b6002610f63610f5e82611af2565b611a75565b91508183856020840282011115610f7957600080fd5b60005b83811015610fa95781610f8f8882611103565b845260208401935060208301925050600181019050610f7c565b5050505092915050565b600082601f830112610fc457600080fd5b8135610fd7610fd282611b14565b611a75565b91508082526020830160208301858383011115610ff357600080fd5b610ffe838284611d40565b50505092915050565b600082601f83011261101857600080fd5b813561102b61102682611b40565b611a75565b9150808252602083016020830185838301111561104757600080fd5b611052838284611d40565b50505092915050565b60006060828403121561106d57600080fd5b6110776060611a75565b9050600082013567ffffffffffffffff81111561109357600080fd5b61109f84828501610fb3565b600083015250602082013567ffffffffffffffff8111156110bf57600080fd5b6110cb84828501610fb3565b602083015250604082013567ffffffffffffffff8111156110eb57600080fd5b6110f784828501610fb3565b60408301525092915050565b60008135905061111281611d93565b92915050565b60008135905061112781611daa565b92915050565b60008060006060848603121561114257600080fd5b600084013567ffffffffffffffff81111561115c57600080fd5b61116886828701610e57565b935050602061117986828701611103565b925050604061118a86828701611103565b9150509250925092565b600080604083850312156111a757600080fd5b600083013567ffffffffffffffff8111156111c157600080fd5b6111cd85828601610ecb565b92505060206111de85828601611103565b9150509250929050565b6000806000608084860312156111fd57600080fd5b600061120b86828701610f3f565b935050604061121c86828701611103565b925050606061122d86828701611103565b9150509250925092565b600080600060a0848603121561124c57600080fd5b600084013567ffffffffffffffff81111561126657600080fd5b61127286828701611007565b935050602061128386828701610f3f565b925050606061129486828701610f3f565b9150509250925092565b6000602082840312156112b057600080fd5b60006112be84828501611103565b91505092915050565b60008060008060c085870312156112dd57600080fd5b60006112eb87828801611118565b94505060206112fc87828801611103565b935050604061130d87828801610f3f565b925050608061131e87828801610f3f565b91505092959194509250565b600061133683836115ca565b905092915050565b600061134a83836117b5565b60608301905092915050565b600061136283836117e4565b60208301905092915050565b61137781611d0a565b82525050565b61138681611cae565b82525050565b600061139782611baa565b6113a18185611c38565b9350836020820285016113b385611b6c565b8060005b858110156113ef57848403895281516113d0858261132a565b94506113db83611bf7565b925060208a019950506001810190506113b7565b50829750879550505050505092915050565b600061140c82611bb5565b6114168185611c43565b93508360208202850161142885611b76565b8060005b858110156114645784840389528151611445858261132a565b945061145083611c04565b925060208a0199505060018101905061142c565b50829750879550505050505092915050565b600061148182611bc0565b61148b8185611c54565b935061149683611b86565b8060005b838110156114c75781516114ae888261133e565b97506114b983611c11565b92505060018101905061149a565b5085935050505092915050565b6114dd81611bd6565b6114e78184611c70565b92506114f282611ba0565b8060005b8381101561152357815161150a8782611356565b965061151583611c2b565b9250506001810190506114f6565b505050505050565b61153481611bcb565b61153e8184611c65565b925061154982611b96565b8060005b8381101561157a5781516115618782611356565b965061156c83611c1e565b92505060018101905061154d565b505050505050565b61158b81611cc0565b82525050565b600061159c82611bec565b6115a68185611c8c565b93506115b6818560208601611d4f565b6115bf81611d82565b840191505092915050565b60006115d582611be1565b6115df8185611c7b565b93506115ef818560208601611d4f565b6115f881611d82565b840191505092915050565b6000611610601583611c9d565b91507f67726f757020616c7265616479206372656174656400000000000000000000006000830152602082019050919050565b6000611650601483611c9d565b91507f6e6f206d65737361676520617661696c61626c650000000000000000000000006000830152602082019050919050565b6000611690604683611c9d565b91507f6f6e6c7920757365722077686f20686176652061636365737320746f2074686560008301527f207075626c6963206163636f756e742063616e2063616c6c207468697320667560208301527f6e6374696f6e00000000000000000000000000000000000000000000000000006040830152606082019050919050565b600061171c601b83611c9d565b91507f6d6173746572206b6579206973206e6f7420617661696c61626c6500000000006000830152602082019050919050565b600061175c602283611c9d565b91507f7468726573686f6c64206d7573742073617469736679207468726573686f6c6460008301527f3c4e0000000000000000000000000000000000000000000000000000000000006020830152604082019050919050565b6060820160008201516117cb60008501826117e4565b5060208201516117de602085018261152b565b50505050565b6117ed81611cec565b82525050565b6117fc81611cec565b82525050565b61180b81611cf6565b82525050565b6000602082019050611826600083018461137d565b92915050565b6000602082019050611841600083018461136e565b92915050565b600060e08201905061185c600083018861136e565b61186960208301876117f3565b818103604083015261187b8186611591565b905061188a60608301856114d4565b61189760a08301846114d4565b9695505050505050565b600060208201905081810360008301526118bb818461138c565b905092915050565b600060608201905081810360008301526118dd8186611401565b90506118ec60208301856117f3565b6118f960408301846117f3565b949350505050565b6000602082019050818103600083015261191b8184611476565b905092915050565b600060808201905061193860008301866114d4565b61194560408301856117f3565b61195260608301846117f3565b949350505050565b600060208201905061196f6000830184611582565b92915050565b6000602082019050818103600083015261198e81611603565b9050919050565b600060208201905081810360008301526119ae81611643565b9050919050565b600060208201905081810360008301526119ce81611683565b9050919050565b600060208201905081810360008301526119ee8161170f565b9050919050565b60006020820190508181036000830152611a0e8161174f565b9050919050565b6000602082019050611a2a60008301846117f3565b92915050565b600060c082019050611a456000830187611802565b611a5260208301866117f3565b611a5f60408301856114d4565b611a6c60808301846114d4565b95945050505050565b6000604051905081810181811067ffffffffffffffff82111715611a9857600080fd5b8060405250919050565b600067ffffffffffffffff821115611ab957600080fd5b602082029050602081019050919050565b600067ffffffffffffffff821115611ae157600080fd5b602082029050602081019050919050565b600067ffffffffffffffff821115611b0957600080fd5b602082029050919050565b600067ffffffffffffffff821115611b2b57600080fd5b601f19601f8301169050602081019050919050565b600067ffffffffffffffff821115611b5757600080fd5b601f19601f8301169050602081019050919050565b6000819050919050565b6000819050602082019050919050565b6000819050602082019050919050565b6000819050919050565b6000819050919050565b600060039050919050565b600081519050919050565b600081519050919050565b600060029050919050565b600060029050919050565b600081519050919050565b600081519050919050565b6000602082019050919050565b6000602082019050919050565b6000602082019050919050565b6000602082019050919050565b6000602082019050919050565b600081905092915050565b600082825260208201905092915050565b600082825260208201905092915050565b600081905092915050565b600081905092915050565b600082825260208201905092915050565b600082825260208201905092915050565b600082825260208201905092915050565b6000611cb982611ccc565b9050919050565b60008115159050919050565b600073ffffffffffffffffffffffffffffffffffffffff82169050919050565b6000819050919050565b600067ffffffffffffffff82169050919050565b6000611d1582611d1c565b9050919050565b6000611d2782611d2e565b9050919050565b6000611d3982611ccc565b9050919050565b82818337600083830152505050565b60005b83811015611d6d578082015181840152602081019050611d52565b83811115611d7c576000848401525b50505050565b6000601f19601f8301169050919050565b611d9c81611cec565b8114611da757600080fd5b50565b611db381611cf6565b8114611dbe57600080fd5b5056fea365627a7a72315820c788ce4985da274c35818866bf1c0ba2fcfdd30be262a9d8137655246532a50d6c6578706572696d656e74616cf564736f6c63430005100040",
  "source": "pragma solidity >=0.5.0;\r\npragma experimental ABIEncoderV2;\r\n\r\ncontract TOAD{\r\n    ///private variables\r\n    EncryptedAccount[] private encrypted_public_account;\r\n\r\n    /// public variables\r\n    bool public has_been_used = false;\r\n    bool public is_mpk_available = false;\r\n    uint public N;\r\n    uint public t;\r\n    address public public_account;\r\n    uint public round;\r\n    uint public nb_group_key = 0;\r\n\r\n\r\n    GroupKeyWithId[] public gpk_list;\r\n\r\n    ///structures\r\n    struct EncryptedAccount{\r\n        bytes e_sk;\r\n        bytes tag;\r\n        bytes nonce;\r\n    }\r\n\r\n    struct GroupKeyWithId{\r\n        uint anonymousId;\r\n        uint256[2] gpk;\r\n    }\r\n\r\n    ///events\r\n    event PublicKey(uint256[2] public_key, uint anonymous_id, uint round);\r\n    event Share(bytes[] shares, uint round, uint anonymous_id);\r\n    event GroupKey(uint256[2] gpk, uint anonymous_id, uint round);\r\n    event MasterGroupKeyAvailable();\r\n    event ShareForDec(uint64 ui, uint round, uint256[2] share, uint256[2] proof);\r\n    event NewMessage(address sender, uint round, bytes file_hash, uint256[2] c1, uint256[2] c2);\r\n    event GenerateNewKeys(uint round);\r\n    event GroupCreation(address creator);\r\n\r\n    function groupCreation(\r\n        EncryptedAccount[] memory _group,\r\n        uint _threshold\r\n        ) public {\r\n\r\n        require(!has_been_used,'group already created');\r\n        has_been_used = true;\r\n\r\n        N = _group.length;\r\n        require(_threshold < N,'threshold must satisfy threshold<N');\r\n        t = _threshold;\r\n        public_account = msg.sender;\r\n        round = 0;\r\n\r\n        for(uint i=0; i<N;i++){\r\n            encrypted_public_account.push(_group[i]);\r\n        }\r\n\r\n        emit GroupCreation(msg.sender);\r\n    }\r\n\r\n    function get_encrypted_public_account(uint i) public view returns (bytes[3] memory){\r\n        require(i<N);\r\n        return [encrypted_public_account[i].e_sk,\r\n                encrypted_public_account[i].tag,\r\n                encrypted_public_account[i].nonce];\r\n    }\r\n\r\n    function publish_pk(uint256[2] memory _public_key, uint _anonymous_id,uint _round) public{\r\n        require(msg.sender == public_account, 'only user who have access to the public account can call this function');\r\n        emit PublicKey(_public_key, _anonymous_id, _round);\r\n    }\r\n\r\n    function publish_share(bytes[] memory _shares, uint _round, uint _anonymous_id) public{\r\n        require(msg.sender == public_account, 'only user who have access to the public account can call this function');\r\n        emit Share(_shares, _round, _anonymous_id);\r\n    }\r\n\r\n    function register_group_key(uint256[2] memory _gpk, uint _anonymous_id, uint _round)public{\r\n        require(msg.sender == public_account,'only user who have access to the public account can call this function');\r\n\r\n        emit GroupKey(_gpk, _anonymous_id, _round);\r\n\r\n        if(_round == 0){\r\n            nb_group_key +=1;\r\n            gpk_list.push(GroupKeyWithId(_anonymous_id, _gpk));\r\n            if(nb_group_key == t +1){\r\n                is_mpk_available = true;\r\n                emit MasterGroupKeyAvailable();\r\n            }\r\n        }\r\n    }\r\n\r\n    function get_group_keys()public view returns(GroupKeyWithId[] memory){\r\n        return gpk_list;\r\n    }\r\n\r\n    function send_msg(bytes memory file_hash, uint256[2] memory c1, uint256[2] memory c2) public{\r\n        require(is_mpk_available, 'master key is not available');\r\n        emit NewMessage(msg.sender,round, file_hash, c1, c2);\r\n        if (round>0){\r\n            emit GenerateNewKeys(round);\r\n        }\r\n        round = round + 1;\r\n    }\r\n\r\n    function share_for_dec(uint64 _ui, uint _round, uint256[2] memory _share, uint256[2] memory _proof) public{\r\n        require(is_mpk_available, 'no message available');\r\n        emit ShareForDec(_ui, _round, _share, _proof);\r\n    }\r\n\r\n}\r\n",
  "sourcePath": "D:/donnees/supaero/3A/Stage DISC/TOAD/contracts/TOAD.sol",
  "compiler": {
    "name": "solc",
    "version": "0.5.16+commit.9c3226ce.Emscripten.clang"
  },
  "schemaVersion": "3.3.4",
  "updatedAt": "2021-03-11T13:42:29.768Z",
  "networkType": "ethereum",
  "devdoc": {
    "methods": {}
  },
  "userdoc": {
    "methods": {}
  }
}