{
  "contractName": "TOAD",
  "abi": [
    {
      "anonymous": false,
      "inputs": [
        {
          "indexed": false,
          "internalType": "uint256",
          "name": "round",
          "type": "uint256"
        }
      ],
      "name": "GenerateNewKeys",
      "type": "event"
    },
    {
      "anonymous": false,
      "inputs": [],
      "name": "GroupCreation",
      "type": "event"
    },
    {
      "anonymous": false,
      "inputs": [
        {
          "indexed": false,
          "internalType": "uint256[2]",
          "name": "gpk",
          "type": "uint256[2]"
        },
        {
          "indexed": false,
          "internalType": "uint256",
          "name": "anonymous_id",
          "type": "uint256"
        },
        {
          "indexed": false,
          "internalType": "uint256",
          "name": "round",
          "type": "uint256"
        }
      ],
      "name": "GroupKey",
      "type": "event"
    },
    {
      "anonymous": false,
      "inputs": [],
      "name": "MasterGroupKeyAvailable",
      "type": "event"
    },
    {
      "anonymous": false,
      "inputs": [
        {
          "indexed": false,
          "internalType": "address",
          "name": "sender",
          "type": "address"
        },
        {
          "indexed": false,
          "internalType": "uint256",
          "name": "round",
          "type": "uint256"
        },
        {
          "indexed": false,
          "internalType": "bytes",
          "name": "file_hash",
          "type": "bytes"
        },
        {
          "indexed": false,
          "internalType": "uint256[4]",
          "name": "c1",
          "type": "uint256[4]"
        },
        {
          "indexed": false,
          "internalType": "uint256[4]",
          "name": "c2",
          "type": "uint256[4]"
        }
      ],
      "name": "NewMessage",
      "type": "event"
    },
    {
      "anonymous": false,
      "inputs": [
        {
          "indexed": false,
          "internalType": "uint256[2]",
          "name": "public_key",
          "type": "uint256[2]"
        },
        {
          "indexed": false,
          "internalType": "uint256",
          "name": "anonymous_id",
          "type": "uint256"
        }
      ],
      "name": "PublicKey",
      "type": "event"
    },
    {
      "anonymous": false,
      "inputs": [
        {
          "indexed": false,
          "internalType": "uint256[]",
          "name": "shares",
          "type": "uint256[]"
        },
        {
          "indexed": false,
          "internalType": "uint256",
          "name": "round",
          "type": "uint256"
        }
      ],
      "name": "Share",
      "type": "event"
    },
    {
      "anonymous": false,
      "inputs": [
        {
          "indexed": false,
          "internalType": "address",
          "name": "sender",
          "type": "address"
        },
        {
          "indexed": false,
          "internalType": "uint256",
          "name": "id",
          "type": "uint256"
        },
        {
          "indexed": false,
          "internalType": "uint256[4]",
          "name": "share",
          "type": "uint256[4]"
        },
        {
          "indexed": false,
          "internalType": "uint256[2]",
          "name": "proof",
          "type": "uint256[2]"
        }
      ],
      "name": "ShareForDec",
      "type": "event"
    },
    {
      "constant": true,
      "inputs": [],
      "name": "N",
      "outputs": [
        {
          "internalType": "uint256",
          "name": "",
          "type": "uint256"
        }
      ],
      "payable": false,
      "stateMutability": "view",
      "type": "function"
    },
    {
      "constant": true,
      "inputs": [
        {
          "internalType": "uint256",
          "name": "",
          "type": "uint256"
        }
      ],
      "name": "gpk_list",
      "outputs": [
        {
          "internalType": "uint256",
          "name": "anonymousId",
          "type": "uint256"
        }
      ],
      "payable": false,
      "stateMutability": "view",
      "type": "function"
    },
    {
      "constant": true,
      "inputs": [],
      "name": "has_been_used",
      "outputs": [
        {
          "internalType": "bool",
          "name": "",
          "type": "bool"
        }
      ],
      "payable": false,
      "stateMutability": "view",
      "type": "function"
    },
    {
      "constant": true,
      "inputs": [],
      "name": "is_mpk_available",
      "outputs": [
        {
          "internalType": "bool",
          "name": "",
          "type": "bool"
        }
      ],
      "payable": false,
      "stateMutability": "view",
      "type": "function"
    },
    {
      "constant": true,
      "inputs": [],
      "name": "nb_group_key",
      "outputs": [
        {
          "internalType": "uint256",
          "name": "",
          "type": "uint256"
        }
      ],
      "payable": false,
      "stateMutability": "view",
      "type": "function"
    },
    {
      "constant": true,
      "inputs": [],
      "name": "public_account",
      "outputs": [
        {
          "internalType": "address",
          "name": "",
          "type": "address"
        }
      ],
      "payable": false,
      "stateMutability": "view",
      "type": "function"
    },
    {
      "constant": true,
      "inputs": [],
      "name": "round",
      "outputs": [
        {
          "internalType": "uint256",
          "name": "",
          "type": "uint256"
        }
      ],
      "payable": false,
      "stateMutability": "view",
      "type": "function"
    },
    {
      "constant": true,
      "inputs": [],
      "name": "t",
      "outputs": [
        {
          "internalType": "uint256",
          "name": "",
          "type": "uint256"
        }
      ],
      "payable": false,
      "stateMutability": "view",
      "type": "function"
    },
    {
      "constant": false,
      "inputs": [
        {
          "components": [
            {
              "internalType": "bytes",
              "name": "e_sk",
              "type": "bytes"
            },
            {
              "internalType": "bytes",
              "name": "tag",
              "type": "bytes"
            },
            {
              "internalType": "bytes",
              "name": "nonce",
              "type": "bytes"
            }
          ],
          "internalType": "struct TOAD.EncryptedAccount[]",
          "name": "_group",
          "type": "tuple[]"
        },
        {
          "internalType": "uint256",
          "name": "_threshold",
          "type": "uint256"
        }
      ],
      "name": "groupCreation",
      "outputs": [],
      "payable": false,
      "stateMutability": "nonpayable",
      "type": "function"
    },
    {
      "constant": true,
      "inputs": [
        {
          "internalType": "uint256",
          "name": "i",
          "type": "uint256"
        }
      ],
      "name": "get_encrypted_public_account",
      "outputs": [
        {
          "internalType": "bytes[3]",
          "name": "",
          "type": "bytes[3]"
        }
      ],
      "payable": false,
      "stateMutability": "view",
      "type": "function"
    },
    {
      "constant": false,
      "inputs": [
        {
          "internalType": "uint256[2]",
          "name": "_public_key",
          "type": "uint256[2]"
        },
        {
          "internalType": "uint256",
          "name": "_anonymous_id",
          "type": "uint256"
        }
      ],
      "name": "publish_pk",
      "outputs": [],
      "payable": false,
      "stateMutability": "nonpayable",
      "type": "function"
    },
    {
      "constant": false,
      "inputs": [
        {
          "internalType": "uint256[]",
          "name": "_shares",
          "type": "uint256[]"
        }
      ],
      "name": "publish_share",
      "outputs": [],
      "payable": false,
      "stateMutability": "nonpayable",
      "type": "function"
    },
    {
      "constant": false,
      "inputs": [
        {
          "internalType": "uint256[2]",
          "name": "_gpk",
          "type": "uint256[2]"
        },
        {
          "internalType": "uint256",
          "name": "_anonymous_id",
          "type": "uint256"
        },
        {
          "internalType": "uint256",
          "name": "_round",
          "type": "uint256"
        }
      ],
      "name": "register_group_key",
      "outputs": [],
      "payable": false,
      "stateMutability": "nonpayable",
      "type": "function"
    },
    {
      "constant": true,
      "inputs": [],
      "name": "get_group_keys",
      "outputs": [
        {
          "components": [
            {
              "internalType": "uint256",
              "name": "anonymousId",
              "type": "uint256"
            },
            {
              "internalType": "uint256[2]",
              "name": "gpk",
              "type": "uint256[2]"
            }
          ],
          "internalType": "struct TOAD.GroupKeyWithId[]",
          "name": "",
          "type": "tuple[]"
        }
      ],
      "payable": false,
      "stateMutability": "view",
      "type": "function"
    },
    {
      "constant": false,
      "inputs": [
        {
          "internalType": "bytes",
          "name": "file_hash",
          "type": "bytes"
        },
        {
          "internalType": "uint256[4]",
          "name": "c1",
          "type": "uint256[4]"
        },
        {
          "internalType": "uint256[4]",
          "name": "c2",
          "type": "uint256[4]"
        }
      ],
      "name": "send_msg",
      "outputs": [],
      "payable": false,
      "stateMutability": "nonpayable",
      "type": "function"
    },
    {
      "constant": false,
      "inputs": [
        {
          "internalType": "uint256",
          "name": "_round",
          "type": "uint256"
        },
        {
          "internalType": "uint256[4]",
          "name": "_share",
          "type": "uint256[4]"
        },
        {
          "internalType": "uint256[2]",
          "name": "_proof",
          "type": "uint256[2]"
        }
      ],
      "name": "share_for_dec",
      "outputs": [],
      "payable": false,
      "stateMutability": "nonpayable",
      "type": "function"
    }
  ],
  "bytecode": "0x60806040526000600160006101000a81548160ff02191690831515021790555060006001806101000a81548160ff021916908315150217905550600060065534801561004a57600080fd5b50611ebb8061005a6000396000f3fe608060405234801561001057600080fd5b50600436106101005760003560e01c806387eb8ae911610097578063bea33f9211610066578063bea33f9214610275578063c9e525df14610293578063ec3b4220146102b1578063ec71e50c146102e157610100565b806387eb8ae91461020157806392d0d1531461021f5780639da8537a1461023d578063ac9ad7b81461025957610100565b80634728bfa7116100d35780634728bfa71461017d57806356a763b5146101995780635db10c94146101b55780638000d354146101d157610100565b80631131fa6014610105578063146ca5311461012357806326cf529814610141578063293cb2ec1461015f575b600080fd5b61010d6102fd565b60405161011a91906118a2565b60405180910390f35b61012b610323565b6040516101389190611aed565b60405180910390f35b610149610329565b6040516101569190611980565b60405180910390f35b6101676103d7565b6040516101749190611a32565b60405180910390f35b6101976004803603610192919081019061121a565b6103ea565b005b6101b360048036036101ae91908101906112aa565b610592565b005b6101cf60048036036101ca9190810190611269565b610677565b005b6101eb60048036036101e69190810190611312565b610745565b6040516101f89190611aed565b60405180910390f35b610209610770565b6040516102169190611a32565b60405180910390f35b610227610782565b6040516102349190611aed565b60405180910390f35b610257600480360361025291908101906111de565b610788565b005b610273600480360361026e919081019061118a565b610855565b005b61027d610a44565b60405161028a9190611aed565b60405180910390f35b61029b610a4a565b6040516102a89190611aed565b60405180910390f35b6102cb60048036036102c69190810190611312565b610a50565b6040516102d8919061195e565b60405180910390f35b6102fb60048036036102f6919081019061133b565b610caa565b005b600460009054906101000a900473ffffffffffffffffffffffffffffffffffffffff1681565b60055481565b60606007805480602002602001604051908101604052809291908181526020016000905b828210156103ce578382906000526020600020906003020160405180604001604052908160008201548152602001600182016002806020026040519081016040528092919082600280156103b6576020028201915b8154815260200190600101908083116103a2575b5050505050815250508152602001906001019061034d565b50505050905090565b600160009054906101000a900460ff1681565b600460009054906101000a900473ffffffffffffffffffffffffffffffffffffffff1673ffffffffffffffffffffffffffffffffffffffff163373ffffffffffffffffffffffffffffffffffffffff161461047a576040517f08c379a000000000000000000000000000000000000000000000000000000000815260040161047190611a8d565b60405180910390fd5b7fa27ceb9453f12631ffb629693e93729fdf50033f4a52265898dbf04ca97e1ade8383836040516104ad939291906119cb565b60405180910390a1600081141561058d57600160066000828254019250508190555060076040518060400160405280848152602001858152509080600181540180825580915050906001820390600052602060002090600302016000909192909190915060008201518160000155602082015181600101906002610532929190610d3a565b50505050600160035401600654141561058c5760018060016101000a81548160ff0219169083151502179055507fcef48ede0cb1072eb5a225ce62cc287f38210d06f4e3eacef9cf7fa7f78b09bb60405160405180910390a15b5b505050565b6001809054906101000a900460ff166105e0576040517f08c379a00000000000000000000000000000000000000000000000000000000081526004016105d790611aad565b60405180910390fd5b7f3f7055ad274fe6f7a8d065a0798cd3489665cd6d207a220ca42999f17166b86f33600554858585604051610619959493929190611903565b60405180910390a160006005541115610666577f59883b3ff144b03efffcd047e8eea14b853f611b162bed2f2a561041c7c31f5760055460405161065d9190611aed565b60405180910390a15b600160055401600581905550505050565b600460009054906101000a900473ffffffffffffffffffffffffffffffffffffffff1673ffffffffffffffffffffffffffffffffffffffff163373ffffffffffffffffffffffffffffffffffffffff1614610707576040517f08c379a00000000000000000000000000000000000000000000000000000000081526004016106fe90611a8d565b60405180910390fd5b7fdb12755b28c95d48eb64cd0360e26d58ced66e965148e71d2c22cf4254ed65e18160055460405161073a929190611a02565b60405180910390a150565b6007818154811061075257fe5b90600052602060002090600302016000915090508060000154905081565b6001809054906101000a900460ff1681565b60035481565b600460009054906101000a900473ffffffffffffffffffffffffffffffffffffffff1673ffffffffffffffffffffffffffffffffffffffff163373ffffffffffffffffffffffffffffffffffffffff1614610818576040517f08c379a000000000000000000000000000000000000000000000000000000000815260040161080f90611a8d565b60405180910390fd5b7fd8b5cd32d815dc1d121ad4c6586b9fa532f24a2e597bda40050fe78dfce7113482826040516108499291906119a2565b60405180910390a15050565b600160009054906101000a900460ff16156108a5576040517f08c379a000000000000000000000000000000000000000000000000000000000815260040161089c90611a4d565b60405180910390fd5b60018060006101000a81548160ff0219169083151502179055508151600281905550600254811061090b576040517f08c379a000000000000000000000000000000000000000000000000000000000815260040161090290611acd565b60405180910390fd5b8060038190555033600460006101000a81548173ffffffffffffffffffffffffffffffffffffffff021916908373ffffffffffffffffffffffffffffffffffffffff160217905550600060058190555060008090505b600254811015610a1357600083828151811061097957fe5b60200260200101519080600181540180825580915050906001820390600052602060002090600302016000909192909190915060008201518160000190805190602001906109c8929190610d7a565b5060208201518160010190805190602001906109e5929190610d7a565b506040820151816002019080519060200190610a02929190610d7a565b505050508080600101915050610961565b507f98fa7a593fbfd81b9abc466a96cf3e56ac83a1506e3f3dfb873f4a08259ea19960405160405180910390a15050565b60065481565b60025481565b610a58610dfa565b6002548210610a6657600080fd5b604051806060016040528060008481548110610a7e57fe5b90600052602060002090600302016000018054600181600116156101000203166002900480601f016020809104026020016040519081016040528092919081815260200182805460018160011615610100020316600290048015610b235780601f10610af857610100808354040283529160200191610b23565b820191906000526020600020905b815481529060010190602001808311610b0657829003601f168201915b5050505050815260200160008481548110610b3a57fe5b90600052602060002090600302016001018054600181600116156101000203166002900480601f016020809104026020016040519081016040528092919081815260200182805460018160011615610100020316600290048015610bdf5780601f10610bb457610100808354040283529160200191610bdf565b820191906000526020600020905b815481529060010190602001808311610bc257829003601f168201915b5050505050815260200160008481548110610bf657fe5b90600052602060002090600302016002018054600181600116156101000203166002900480601f016020809104026020016040519081016040528092919081815260200182805460018160011615610100020316600290048015610c9b5780601f10610c7057610100808354040283529160200191610c9b565b820191906000526020600020905b815481529060010190602001808311610c7e57829003601f168201915b50505050508152509050919050565b6001809054906101000a900460ff16610cf8576040517f08c379a0000000000000000000000000000000000000000000000000000000008152600401610cef90611a6d565b60405180910390fd5b7faf68c8c1fc9d028d4bf2d1e25dd1ffb39175d0dbc73b71284179222eceabf98133848484604051610d2d94939291906118bd565b60405180910390a1505050565b8260028101928215610d69579160200282015b82811115610d68578251825591602001919060010190610d4d565b5b509050610d769190610e21565b5090565b828054600181600116156101000203166002900490600052602060002090601f016020900481019282601f10610dbb57805160ff1916838001178555610de9565b82800160010185558215610de9579182015b82811115610de8578251825591602001919060010190610dcd565b5b509050610df69190610e21565b5090565b60405180606001604052806003905b6060815260200190600190039081610e095790505090565b610e4391905b80821115610e3f576000816000905550600101610e27565b5090565b90565b600082601f830112610e5757600080fd5b8135610e6a610e6582611b35565b611b08565b9150818183526020840193506020810190508360005b83811015610eb05781358601610e9688826110cd565b845260208401935060208301925050600181019050610e80565b5050505092915050565b600082601f830112610ecb57600080fd5b6002610ede610ed982611b5d565b611b08565b91508183856020840282011115610ef457600080fd5b60005b83811015610f245781610f0a8882611175565b845260208401935060208301925050600181019050610ef7565b5050505092915050565b600082601f830112610f3f57600080fd5b6004610f52610f4d82611b7f565b611b08565b91508183856020840282011115610f6857600080fd5b60005b83811015610f985781610f7e8882611175565b845260208401935060208301925050600181019050610f6b565b5050505092915050565b600082601f830112610fb357600080fd5b8135610fc6610fc182611ba1565b611b08565b91508181835260208401935060208101905083856020840282011115610feb57600080fd5b60005b8381101561101b57816110018882611175565b845260208401935060208301925050600181019050610fee565b5050505092915050565b600082601f83011261103657600080fd5b813561104961104482611bc9565b611b08565b9150808252602083016020830185838301111561106557600080fd5b611070838284611e0e565b50505092915050565b600082601f83011261108a57600080fd5b813561109d61109882611bf5565b611b08565b915080825260208301602083018583830111156110b957600080fd5b6110c4838284611e0e565b50505092915050565b6000606082840312156110df57600080fd5b6110e96060611b08565b9050600082013567ffffffffffffffff81111561110557600080fd5b61111184828501611025565b600083015250602082013567ffffffffffffffff81111561113157600080fd5b61113d84828501611025565b602083015250604082013567ffffffffffffffff81111561115d57600080fd5b61116984828501611025565b60408301525092915050565b60008135905061118481611e61565b92915050565b6000806040838503121561119d57600080fd5b600083013567ffffffffffffffff8111156111b757600080fd5b6111c385828601610e46565b92505060206111d485828601611175565b9150509250929050565b600080606083850312156111f157600080fd5b60006111ff85828601610eba565b925050604061121085828601611175565b9150509250929050565b60008060006080848603121561122f57600080fd5b600061123d86828701610eba565b935050604061124e86828701611175565b925050606061125f86828701611175565b9150509250925092565b60006020828403121561127b57600080fd5b600082013567ffffffffffffffff81111561129557600080fd5b6112a184828501610fa2565b91505092915050565b600080600061012084860312156112c057600080fd5b600084013567ffffffffffffffff8111156112da57600080fd5b6112e686828701611079565b93505060206112f786828701610f2e565b92505060a061130886828701610f2e565b9150509250925092565b60006020828403121561132457600080fd5b600061133284828501611175565b91505092915050565b600080600060e0848603121561135057600080fd5b600061135e86828701611175565b935050602061136f86828701610f2e565b92505060a061138086828701610eba565b9150509250925092565b6000611396838361166a565b905092915050565b60006113aa8383611855565b60608301905092915050565b60006113c28383611884565b60208301905092915050565b6113d781611dd8565b82525050565b6113e681611d90565b82525050565b60006113f782611c69565b6114018185611d0f565b93508360208202850161141385611c21565b8060005b8581101561144f5784840389528151611430858261138a565b945061143b83611cc1565b925060208a01995050600181019050611417565b50829750879550505050505092915050565b600061146c82611c74565b6114768185611d1a565b935061148183611c2b565b8060005b838110156114b2578151611499888261139e565b97506114a483611cce565b925050600181019050611485565b5085935050505092915050565b6114c881611c8a565b6114d28184611d36565b92506114dd82611c45565b8060005b8381101561150e5781516114f587826113b6565b965061150083611ce8565b9250506001810190506114e1565b505050505050565b61151f81611c7f565b6115298184611d2b565b925061153482611c3b565b8060005b8381101561156557815161154c87826113b6565b965061155783611cdb565b925050600181019050611538565b505050505050565b61157681611c95565b6115808184611d41565b925061158b82611c4f565b8060005b838110156115bc5781516115a387826113b6565b96506115ae83611cf5565b92505060018101905061158f565b505050505050565b60006115cf82611ca0565b6115d98185611d4c565b93506115e483611c59565b8060005b838110156116155781516115fc88826113b6565b975061160783611d02565b9250506001810190506115e8565b5085935050505092915050565b61162b81611da2565b82525050565b600061163c82611cb6565b6116468185611d6e565b9350611656818560208601611e1d565b61165f81611e50565b840191505092915050565b600061167582611cab565b61167f8185611d5d565b935061168f818560208601611e1d565b61169881611e50565b840191505092915050565b60006116b0601583611d7f565b91507f67726f757020616c7265616479206372656174656400000000000000000000006000830152602082019050919050565b60006116f0601483611d7f565b91507f6e6f206d65737361676520617661696c61626c650000000000000000000000006000830152602082019050919050565b6000611730604683611d7f565b91507f6f6e6c7920757365722077686f20686176652061636365737320746f2074686560008301527f207075626c6963206163636f756e742063616e2063616c6c207468697320667560208301527f6e6374696f6e00000000000000000000000000000000000000000000000000006040830152606082019050919050565b60006117bc601b83611d7f565b91507f6d6173746572206b6579206973206e6f7420617661696c61626c6500000000006000830152602082019050919050565b60006117fc602283611d7f565b91507f7468726573686f6c64206d7573742073617469736679207468726573686f6c6460008301527f3c4e0000000000000000000000000000000000000000000000000000000000006020830152604082019050919050565b60608201600082015161186b6000850182611884565b50602082015161187e6020850182611516565b50505050565b61188d81611dce565b82525050565b61189c81611dce565b82525050565b60006020820190506118b760008301846113dd565b92915050565b6000610100820190506118d360008301876113ce565b6118e06020830186611893565b6118ed604083018561156d565b6118fa60c08301846114bf565b95945050505050565b60006101608201905061191960008301886113ce565b6119266020830187611893565b81810360408301526119388186611631565b9050611947606083018561156d565b61195460e083018461156d565b9695505050505050565b6000602082019050818103600083015261197881846113ec565b905092915050565b6000602082019050818103600083015261199a8184611461565b905092915050565b60006060820190506119b760008301856114bf565b6119c46040830184611893565b9392505050565b60006080820190506119e060008301866114bf565b6119ed6040830185611893565b6119fa6060830184611893565b949350505050565b60006040820190508181036000830152611a1c81856115c4565b9050611a2b6020830184611893565b9392505050565b6000602082019050611a476000830184611622565b92915050565b60006020820190508181036000830152611a66816116a3565b9050919050565b60006020820190508181036000830152611a86816116e3565b9050919050565b60006020820190508181036000830152611aa681611723565b9050919050565b60006020820190508181036000830152611ac6816117af565b9050919050565b60006020820190508181036000830152611ae6816117ef565b9050919050565b6000602082019050611b026000830184611893565b92915050565b6000604051905081810181811067ffffffffffffffff82111715611b2b57600080fd5b8060405250919050565b600067ffffffffffffffff821115611b4c57600080fd5b602082029050602081019050919050565b600067ffffffffffffffff821115611b7457600080fd5b602082029050919050565b600067ffffffffffffffff821115611b9657600080fd5b602082029050919050565b600067ffffffffffffffff821115611bb857600080fd5b602082029050602081019050919050565b600067ffffffffffffffff821115611be057600080fd5b601f19601f8301169050602081019050919050565b600067ffffffffffffffff821115611c0c57600080fd5b601f19601f8301169050602081019050919050565b6000819050919050565b6000819050602082019050919050565b6000819050919050565b6000819050919050565b6000819050919050565b6000819050602082019050919050565b600060039050919050565b600081519050919050565b600060029050919050565b600060029050919050565b600060049050919050565b600081519050919050565b600081519050919050565b600081519050919050565b6000602082019050919050565b6000602082019050919050565b6000602082019050919050565b6000602082019050919050565b6000602082019050919050565b6000602082019050919050565b600081905092915050565b600082825260208201905092915050565b600081905092915050565b600081905092915050565b600081905092915050565b600082825260208201905092915050565b600082825260208201905092915050565b600082825260208201905092915050565b600082825260208201905092915050565b6000611d9b82611dae565b9050919050565b60008115159050919050565b600073ffffffffffffffffffffffffffffffffffffffff82169050919050565b6000819050919050565b6000611de382611dea565b9050919050565b6000611df582611dfc565b9050919050565b6000611e0782611dae565b9050919050565b82818337600083830152505050565b60005b83811015611e3b578082015181840152602081019050611e20565b83811115611e4a576000848401525b50505050565b6000601f19601f8301169050919050565b611e6a81611dce565b8114611e7557600080fd5b5056fea365627a7a723158208d8a132b2624f391e7f75cbb5c514d8ee84bd05a6420a3609ab86801defe0a1e6c6578706572696d656e74616cf564736f6c63430005100040",
  "source": "pragma solidity >=0.5.0;\npragma experimental ABIEncoderV2;\n\ncontract TOAD{\n    ///private variables\n    EncryptedAccount[] private encrypted_public_account;\n\n    /// public variables\n    bool public has_been_used = false;\n    bool public is_mpk_available = false;\n    uint public N;\n    uint public t;\n    address public public_account;\n    uint public round;\n    uint public nb_group_key = 0;\n\n\n    GroupKeyWithId[] public gpk_list;\n\n    ///structures\n    struct EncryptedAccount{\n        bytes e_sk;\n        bytes tag;\n        bytes nonce;\n    }\n\n    struct GroupKeyWithId{\n        uint anonymousId;\n        uint256[2] gpk;\n    }\n\n    ///events\n    event PublicKey(uint256[2] public_key, uint anonymous_id);\n    event Share(uint256[] shares, uint round);\n    event GroupKey(uint256[2] gpk, uint anonymous_id, uint round);\n    event MasterGroupKeyAvailable();\n    event ShareForDec(address sender, uint id, uint256[4] share, uint256[2] proof);\n    event NewMessage(address sender, uint round, bytes file_hash, uint256[4] c1, uint256[4] c2);\n    event GenerateNewKeys(uint round);\n    event GroupCreation();\n\n    function groupCreation(\n        EncryptedAccount[] memory _group,\n        uint _threshold\n        ) public {\n\n        require(!has_been_used,'group already created');\n        has_been_used = true;\n\n        N = _group.length;\n        require(_threshold < N,'threshold must satisfy threshold<N');\n        t = _threshold;\n        public_account = msg.sender;\n        round = 0;\n\n        for(uint i=0; i<N;i++){\n            encrypted_public_account.push(_group[i]);\n        }\n\n        emit GroupCreation();\n    }\n\n    function get_encrypted_public_account(uint i) public view returns (bytes[3] memory){\n        require(i<N);\n        return [encrypted_public_account[i].e_sk,\n                encrypted_public_account[i].tag,\n                encrypted_public_account[i].nonce];\n    }\n\n    function publish_pk(uint256[2] memory _public_key, uint _anonymous_id) public{\n        require(msg.sender == public_account, 'only user who have access to the public account can call this function');\n        emit PublicKey(_public_key, _anonymous_id);\n    }\n\n    function publish_share(uint256[] memory _shares) public{\n        require(msg.sender == public_account, 'only user who have access to the public account can call this function');\n        emit Share(_shares, round);\n    }\n\n    function register_group_key(uint256[2] memory _gpk, uint _anonymous_id, uint _round)public{\n        require(msg.sender == public_account,'only user who have access to the public account can call this function');\n\n        emit GroupKey(_gpk, _anonymous_id, _round);\n\n        if(_round == 0){\n            nb_group_key +=1;\n            gpk_list.push(GroupKeyWithId(_anonymous_id, _gpk));\n            if(nb_group_key == t +1){\n                is_mpk_available = true;\n                emit MasterGroupKeyAvailable();\n            }\n        }\n    }\n\n    function get_group_keys()public view returns(GroupKeyWithId[] memory){\n        return gpk_list;\n    }\n\n    function send_msg(bytes memory file_hash, uint256[4] memory c1, uint256[4] memory c2) public{\n        require(is_mpk_available, 'master key is not available');\n        emit NewMessage(msg.sender,round, file_hash, c1, c2);\n        if (round>0){\n            emit GenerateNewKeys(round);\n        }\n        round = round + 1;\n    }\n\n    function share_for_dec(uint _round, uint256[4] memory _share, uint256[2] memory _proof) public{\n        require(is_mpk_available, 'no message available');\n        emit ShareForDec(msg.sender, _round, _share, _proof);\n    }\n\n}\n",
  "sourcePath": "/home/promo21/a.vandewalle/3A/Stage DISC/TOAD/contracts/TOAD.sol",
  "compiler": {
    "name": "solc",
    "version": "0.5.16+commit.9c3226ce.Emscripten.clang"
  },
  "schemaVersion": "3.3.4",
  "updatedAt": "2021-02-19T14:34:46.257Z",
  "networkType": "ethereum",
  "devdoc": {
    "methods": {}
  },
  "userdoc": {
    "methods": {}
  }
}